:20000000483F00205583000001CA011001CA011001CA011001CA011001CA011001CA011039
:1C00200001CA011001CA011001CA011001CA011001CA011001CA01103FCA011082
:20003C001FB58DF80C002548016825480088E0B124480068014218D023480068014204D1F9
:20005C0022480068008801420FD0234840F20B43046800930DA201929DF80C001D4B029041
:20007C001A881B4B186804A3A047032003A9012208F0A6F900901FBD70726F6A6563745F03
:20009C007A65726F5F6264732E6300C02843422920474150205374617465206368616E678B
:2000BC00653A2025642C2053656E64696E67206D736720746F206170702E00C088C00000C7
:2000DC00CEC00000400500003C05000044050000A4C00000840500009CC0000042F0020228
:0400FC0003F038BD18
:200100003C000000000000000000000034010000000000000000000001000000000000006D
:1C01200000000000000000000000000001000000000000000800000000000000BA
:20013C00340000000000000000000000680100000000000000000000010000000000000005
:14015C00010000000000000000000000080000000000000086
:2001700030000000000000000000000098010000040000000000000001000000FFFFFFFFA5
:10019000FF00000001000000080000000000000057
:2001A0002C0000000000000000000000C4010000040000000000000001000000FFFFFFFF4D
:0C01C000FFFFFFFF08000000000000002F
:2001CC0034050000E401000099A1011095A70110A5C2011009B2011045B80110000000000B
:0801EC00000000002E000000DD
:2001F400280000000000000000000000140200000000000000000000FFFFFFFF00000000B1
:080214000800000000000000DA
:20021C00300500003002000069C201106DC101101FC2011095BA011000000000000000008E
:04023C002C00000092
:20024000300500005402000075C20110A9B601109DBF011049B601100000000000000000DE
:040260002D0000006D
:200264002400000000000000000000008002000000000000000000000000000008000000CC
:040284000000000076
:20028800240000000000000000000000A40200000000000000000000000000000800000084
:0402A8000000000052
:2002AC00240000000000000000000000C8020000000000000100000000000000080000003B
:0402CC00000000002E
:2002D00000000000DC15002004000000000000000000000020000000700100003000000038
:2002F0001C020000E41500200400000000000000000000000C00000030040000180000005B
:2003100040020000EC150020040000000000000000000000240000004804000018000000DE
:2003300000000000F415002004000000000000000000000010000000A00100002C000000A3
:20035000CC010000FC150020040000000000000000000000200000006402000024000000E1
:20037000FFFFFFFF041600200400000000000000000000002800000088020000240000005D
:20039000FFFFFFFF0C160020040000000000000000000000580000003C0100003400000042
:2003B000FFFFFFFF1416002004000000000000000000000010000000600400001800000057
:2003D000FFFFFFFF1C1600200400000000000000000000001C000000AC02000024000000CD
:2003F000FFFFFFFF2416002004000000000000000000000038000000F4010000280000003E
:20041000FFFFFFFF2C16002004000000000000000000000054000000000100003C000000D9
:1804300018000000000000000000000040040000080000000000000050
:1804480018000000000000000000000058040000080000000000000020
:18046000180000000000000000000000700400000800000000000000F0
:08047800020000005CC000005E
:0404800007F0BCBB0A
:040484000100000073
:0404880000008C0FD5
:04048C000000BC0FA1
:040490003200000036
:040494000100000063
:0404980068150020C3
:04049C00000200005A
:0404A0000000000058
:0404A40001CA011078
:0404A8000000000050
:0404AC00000000004C
:0404B0000800000040
:0404B40000007612BC
:0404B80050140020BC
:0404BC00010000003B
:0404C0008015002083
:0404C400080000002C
:0404C8000000000030
:0404CC00000000002C
:0404D0000000000028
:0404D4000000000024
:0404D8000000000020
:0404DC00010000001B
:0404E000B81400202C
:0404E400060000000E
:0404E800010000000F
:0404EC008013002059
:0404F0000000000008
:0404F4000000000004
:0404F80000020000FE
:0404FC0000000000FC
:02050000704742
:020502002800CF
:020504000100F4
:020506002400CF
:020508002C00C5
:02050A002D00C2
:02050C002E00BF
:02050E000100EA
:0105100001E9
:080514000300000030C00000EC
:08051C000000000000000000D7
:040524000000930D33
:040528000000AD0D15
:04052C0087C401106F
:04053000380500008A
:040534003805000086
:0405380000000000BF
:04053C0090610000CA
:0405400090610000C6
:0405440000000000B3
:0405480080150020FA
:04054C009F9E00006E
:040550002000000087
:0405540090BF000054
:0405580080BE000061
:04055C000DC30110BA
:040560004B9A0000B2
:04056400939B000065
:0405680099C801101D
:04056C009BC8011017
:040570000000000087
:0405740020A40000BF
:040578005CBD000066
:04057C0074BD00004A
:0405800044BD000076
:020584000280F3
:020586000380F0
:02058800C0179A
:02058A0001006E
:01058C00016D
:040590000000000067
:040594000000000063
:04059800000000005F
:04059C00000000005B
:0405A00021A2000094
:0405A400158A0000B4
:0405A800F1970000C7
:0405AC00658E000058
:0405B000C78F0000F1
:0405B4006992000048
:0405B800A17000002E
:0405BC0053A0000048
:0405C0003D78000082
:0405C40011C8011049
:0405C80021C8011035
:0405CC000800000023
:0405D0002400000003
:0405D400180000000B
:0405D80028000000F7
:0405DC0020000000FB
:0405E0003C000000DB
:0405E4000C00000007
:0405E80034000000DB
:2005EC002DE9F04FADF17C0D00F0C2FBA5480488A548A7490268A54809680068119202EAB1
:20060C0000070A401392A34A12681492A24A10941488A24A12681592A14A12681692A14A9A
:20062C0012971268179202EA00070A4019929E4A1268189702EA00079C481A9200681B974C
:20064C000A401D909A481C9280460820ADF820000A27ADF822704FF0FF36099608A808F031
:20066C00F5FC0028F1D100200F900827ADF830700926ADF832600CA808F0E8FCDDF83890CD
:20068C000028CDF83C9040F02281BDF834000126102840F0168198F800009DF8361088427E
:2006AC0040F00F814D4628884FF6FF71814200F095802F78913F74D01F3F40F00281687802
:2006CC00109A162844D028797E282ED07F2819D01199171C5FD0129F002F5CD0139F1FB99B
:2006EC0014980088014256D040F297300090ABA7019728790290DDF858C015982246A2A364
:20070C00E04748E01199002A45D0129F002F42D0139F1FB91498008801423CD040F29230A2
:20072C000090B1A701972889E4E71799002A32D0189F002F2FD0199F1FB9149800880142E9
:20074C0029D040F28D300090B1A70197287AD1E71A99A2B11B9F97B11C9F1FB914980088FC
:20076C0001420CD04FF45D700090C0A701972879DDF858C002901598224683A3E04768883D
:20078C00082108F0E1FD30B9304604F0A1F80026C8F80C5095E0297905F1080009F0F4F925
:2007AC008FE068780E2840F08C80109F1199002F00F08780129F002F00F08380139F1FB990
:2007CC001498008801427CD040F25730BBA7009000250197DDF858C002954EE06888000937
:2007EC006FD3D8F80C50002D6BD098F80200B5F802B0401C88F8020095F804A0102009F0EE
:20080C0003F80835071C12D00221152209F014FCA7F808B087F80AA0FD6009F005F8B04A5F
:20082C00394608F029F80546162D01D104E00425D8F80C00042D3DD1109F1A99002F40D0EB
:20084C001B9F002F3DD01C9F1FB914980088014237D0D8F80C004FF473720092C5A70197EB
:20086C000079029098F80200002503902B460495DDF874C005932A460692159842A322466A
:20088C00E0471EE0CEC0000088C00000400500003C0500004405000084050000A4C0000095
:2008AC009CC0000084C000008CC00000A0C00000C00700204088002108F046FD284604F073
:2008CC0007F80F9F1FB116B1484609F08DF9D8F8080009F09BFD00287FF4B7AED8F808007A
:2008EC0009F090FD8146109E99F8080009F1090509F10901002800F05F81401E00F0A680E0
:20090C00401E5ED0401E00F0B381801E40F0B3811199371C20D0129FF7B1139F1FB914983F
:20092C000088014218D0AF78002F0CBF9DA0A0A040F27322002682A700923346DDF874C030
:20094C0001973246029037460396159804930EA3059222460697E0472D88102008F054FFEB
:20096C00071C00F088810121132209F065FB3D810020B8720646FE6008F056FFBB4A39461C
:20098C0007F07AFF77E1C04670726F6A6563745F7A65726F5F6264732E6300C052656365FF
:2009AC00766965642047415454204D6573736167652E204F70636F64653A2030782530321D
:2009CC0078002F8841F210102A463F1A19D0A7F2FF67002F40F04F81287969886D1D2A461D
:2009EC0001F03AFD47E1C0464D54552053697A65206368616E67653A2025642062797465A7
:200A0C00730010795188521D03F092F933E1C046466C6F7720636F6E74726F6C2076696FC7
:200A2C006C617465642E204F70636F6465206F66206F6666656E64696E6720415454206D9D
:200A4C0073673A2030782530327800C0288841F60F01814240F00F81B5F80570381C41D0EE
:200A6C00401E28D0401E3FD1ABA03CE04F7574676F696E67205246204649464F2066756C90
:200A8C006C2E2052652D7363686564756C65207472616E736D697373696F6E206F66206D93
:200AAC0073672077697468206F70636F646520307825303278009DA015E0C04648434920E7
:200ACC00436F6D6D616E6420436F6D706C657465204576656E742072656365697665640069
:200AEC0029A0000097A01E902D79002D40F0C3801199E6B1129ED6B1139E1EB914980088C2
:200B0C00014214D040F2293074A600907AA57EA31E9ADDF874C001960026029515980393D5
:200B2C0035460492914B059622460695E0471FB98C4808F019FF9EE08A4809F05FFC9AE01D
:200B4C00426F6E644D6772205265717565737465642070617373636F64652E205765206111
:200B6C0072652025732070617373636F64652025303664005265747279696E67206D6573A0
:200B8C00736167652077697468206F70636F6465203078253032782E20417474656D70743F
:200BAC0020256400446973706C6179696E6700C053656E64696E6700288841F2101181421D
:200BCC0059D1A978684A681D06F050FC2F796E1D002F50D1109F1199E7B1129FD7B1139FE6
:200BEC001FB914980088014214D05F4A40F2F6202EA7009034A537A3DDF874C001970027E5
:200C0C000295159803933D460492584B059722460695E047D8F810003278062107F0B4FD13
:200C2C00109F1199002F26D0129F27B3139F1FB91498008801421ED03778002F0CBF46A021
:200C4C0046A040F2FE2216A60025009210A70197DDF874C002962B4603902A460495159833
:200C6C000593424B06922246E04704E01BA00000087801F085FD0820ADF82800CDF82C9014
:200C8C000527ADF82A700AA808F0E0F91FE6C04653657474696E6720257320257300C046FB
:200CAC00426F6172645F4C45443000C056616C7565204368616E6765206D73673A20257360
:200CCC002025733A202573004C45442053657276696365004C45443000C046C043434344C0
:200CEC00204368616E6765206D73673A2025732025733A20257300C04261747465727920C4
:200D0C00536572766963650042617474657279204C6576656C00C046496E646963617469D8
:200D2C006F6E7320656E61626C6564004E6F74696669636174696F6E7320656E61626C658B
:200D4C006400C0464E6F74692F496E642064697361626C656400C0466C6F770068696768E9
:200D6C0000C046C06C08002014080020940900002DE9F04F0820ADF1740DADF830004FF084
:200D8C000108ADF832800CA808F060F97F4C9DF8340020700E986060784805687848DFF894
:200DAC00E4A1008860A7A9461A90F8B15146086819EA000F1AD0C848006819EA000F05D16E
:200DCC00C6480068008819EA000F0FD0C64840F261135AA20668009300210192C14B029114
:200DEC00BF491A8808683B462946B04704F13C060021304609F0FEFA04F1480004F11C01D8
:200E0C00A66005F02FFC5146096820611B9100BB5D481A9E0168D6B11B98014217D0AE4890
:200E2C000068014204D1AD480068008801420ED0AD4840F26F1306680093C8A20192002356
:200E4C000293A84B1A88A64B18683B46B04709F0CDFA03A800212422082309F0C3FAC748B1
:200E6C0000264FF47A7103AB006809963246B1FBF0F081B241F288304843C149089004F119
:200E8C00AC0009F0ABFAB04601200DF162028DF862000146ADF84C8040F2053001F044FF49
:200EAC0040F20630022113AA01F03EFF621C4FF44270012101F038FF04F1640240F207302F
:200ECC00122101F031FF1A9804F16406002870D01B9805426DD080480068054204D17F48EF
:200EEC0000680088054264D04146202204F18B0005F038FF7B487A4B7B4AB0F800A0D3F8A6
:200F0C0000B0D2F800904046325C401CC0B2335C8119092B18BF082B01D11F2A38DB12181A
:200F2C00D0B22028F0DB38E070726F6A6563745F7A65726F5F6264732E6300C0496E697465
:200F4C0069616C697A696E67207468652075736572207461736B2C20686172647761726581
:200F6C002C20424C4520737461636B20616E642073657276696365732E00C04688C00000BD
:200F8C00CEC000004005000084C00000C0070020CA48491C521E05F033FA40F29D100090CF
:200FAC00C7A60196C54E524629463B4658460296C8470620A02107F0C9FD0720A02107F0BE
:200FCC00C5FD0820A02107F0C1FD0920A02107F0BDFD01201E2107F0B9FD41468DF865107C
:200FEC0001208DF8630046468DF864000746129612AA8DF8667004214FF4816007F08CFD92
:20100C004FF480600DF16302394607F085FD40F2024019AA394607F07FFD40F20340394629
:20102C000DF1650207F078FD40F2064039460DF1660207F071FD032007F0DAFE042007F004
:20104C00D7FEC748C74A132107F008FBC649032007F0F4FBC54EC64A032106F1080007F00C
:20106C00FDFA1A98A9460FF2902AE8B11B9819EA000F19D01848006819EA000F05D11748BB
:20108C000068008819EA000F0ED017480668BB27032300971349CDF804A0114F02930A88AC
:2010AC00386891A32946B047B24E08200427ADF83C0094F800B03078ADF83E70800010905F
:2010CC000FA807F0C3FF00280CBF11984046AA490028886056D009E03C05000044050000D6
:2010EC00A4C00000840500009CC00000377847B14FF6FF72001F414620F8042F7F1E8170BF
:20110C00FAD19D489D4A04210C3007F0A7FA1A98DDF86C800746E0B119EA080F19D09948FE
:20112C00006819EA000F05D197480068008819EA000F0ED095480568CF23042200939449C2
:20114C00CDF804A0934B02920A881868494673A3A847894880F800B017E0C0464572726F74
:20116C007220696E697469616C697A696E6720626F6172642070696E7300C04678C0000086
:20118C0003A200001A9FDDF86C80784904F12C000FF29C1A4860DFB119EA080F18D079498F
:2011AC00096819EA010F05D177490968098819EA010F0DD07549CA230D6800937449CDF8E2
:2011CC0004A0744B02900A881868494646A3A847694904F134004860DFB119EA080F18D080
:2011EC006849096819EA010F05D167490968098819EA010F0DD06549E0270D680097644BC6
:20120C00CDF804A0634902901A88086843A34946A8470DF14E000021142205F0A3FD00204D
:20122C0001210DF14E0202F083FD002001210DF14E0201F011F9B07820BB04F1180096F897
:20124C000180F5787062182008F0DEFA071C19D00421002208F000FE404608F044FA38720B
:20126C007D720020B87206F14803FB6006F158023A6106F12001796108F0D6FA404A3946DD
:20128C0007F0FAFA0C2008F0BFFA071C0AD00121042208F0D1FE2434BC6008F0C5FA3946C4
:2012AC0008F0AAF80120102107F0BCFD0220102107F0B8FD1DB0BDE8F08FC0464B0800201D
:2012CC004E616D6520696E20616476657274446174612061727261793A201B5B33336D2563
:2012EC00731B5B306D00C0466C65645F736572766963652E6300C0465265676973746572F5
:20130C00656420736572766963652C202564206174747269627574657300C04662617474FA
:20132C006572795F736572766963652E6300C046526567697374657265642063616C6C623E
:20134C0061636B7320746F206170706C69636174696F6E2E2053747275637420257000C0E0
:20136C001010002018C00000AFA100001814002014BF0000000C002034130020CCBF0000BC
:20138C00BBA100003C050000440500009CC0000084050000A4C000002DE9F04F0120ADF1FE
:2013AC005C0DADF81A000827ADF8187006A807F04DFE00263546DE4C8DF854509DF81C0008
:2013CC006070A6700898E0614FF6FF70A082384608F01AFA5FEA00080CD00121122208F05F
:2013EC002BFE08F021FA15A90123DA4A0091414607F060FA9DF854000121207004F1A800FE
:20140C0007F0A8FC04F1CC00022107F0A3FC04F1F000042107F09EFC042031461022E070F3
:20142C0004F1480005F09EFC04F158003146102205F098FC2562267266720720E67204F1EA
:20144C0048021021A072022007F09EFC04F158020320102107F098FC042004F12002014690
:20146C0007F092FC19E0A078B4F84050B4F84230B4F84420B4F8461006280ED1ADF842501A
:20148C00ADF84430ADF84620CB48ADF8481008F0BDFE012010A905F0E5FB0A20ADF80A00D1
:2014AC00ADF808704FF0FF35039502A807F0CEFD002840F0E18130460C90ADF82470092559
:2014CC00ADF8265009A807F0C1FDDDF82C900028CDF8309040F0D081BDF82800102840F07B
:2014EC00BF8160789DF82A10884240F0B9814D4628884FF6FF71814200F0AA812B78A23B6F
:20150C0000F08F812E3B40F0AB81A878B046002800F05C81801E00F03481401E012840F2F3
:20152C000981801E00F0B980401E7FD0401E60D0083800F06781801E40F0698194F83E3049
:20154C00A888052BADF834004BD001208DF83E00994808F05BFE94F83E00012820D0042806
:20156C001ED003280DD002280BD00C98C188ADF836100189ADF838104189ADF83A10808953
:20158C002BE0B4F84000B4F84250ADF83600B4F84430ADF83850B4F84600ADF83A301CE0E5
:2015AC00B4F84000E9888842D8BF081CADF836002989B4F842008842D8BF081CADF8380060
:2015CC006989B4F844008842D8BF081CADF83A00B4F84610A889814200DC0146ADF83C10AF
:2015EC0001E08DF83E60B14A0DA8122107F081FC0DE1AF4808F00AFE6878002840F00781DF
:20160C00E888E08228892083688960836A4808F079FC002840F0FB80A56A002D00F0F7802F
:20162C002B68E08A218B628B9847F0E0B5F804A00A2008F0E9F85FEA00080AD00121152281
:20164C0008F0FAFCA8F808A008F0EEF8414607F0D3FEB9483146062205F084FBE6822683F6
:20166C006683A8796073544808F0D0FD904808F0CDFD4FF001084FF6FF706379A0824BB988
:20168C00A879082814BF04200520A070404608F03BFBBCE00320A070B9E06878002840D18C
:2016AC00A549281D02680A60808888800623A3706889A082E889E082288A2083688A6083BB
:2016CC00E878207394F83E00012818BF022808D11F2006F0A5FF4FF47A714143364807F03E
:2016EC005BF995F803B0B5F80AA0142008F08CF85FEA000800F08E800121142208F09CFC0C
:20170C0088F808B02D1DC8F80C50A8F810A0042088F8120008F088F8804A414607F0ACF8B5
:20172C0078E0687831286BD12671042023E0C046000C00206878002862D1A878618AA27880
:20174C00032813D02079657931B9012814BF6671267107E037A00000054303D0724807F01A
:20176C001BF9A278072AE0D1062004E0062A06D0207910B90320A0704CE00220FBE7072051
:20178C00F9E7687800283BD1EB78A078E179ABB9022818D0072816D0062802D161790129E4
:2017AC0011D103280FD0604808F0ACFB58B9012008F0AAFA07E0C046CC0C00205F4A404608
:2017CC0006F068FA68706878D0B920E06878B8B9564A0220102107F0F1FA554A032010214B
:2017EC0007F0ECFA5648ED1C29680160AB888380544A01252846A179A57006F04BFA48B19C
:20180C00A77007E0A888464A102107F059FBB8F1010F25D1606A18B3016809B3A078884732
:20182C001EE0687913281BD12889012808D1A07B022805D11E4808F0E9FC06F0FBFB0FE0AA
:20184C00052006F0EDFE0146194807F0A5F807E06888C00B04D3374A0420014607F0AEFA36
:20186C000C9848B1ADF810700320ADF81200CDF8149004A807F0EAFB208A65792179420863
:20188C0031D320F0010055EA010320822BD08DB92D49207A8DF84A00657A8DF84B500A68B1
:2018AC0013AB1A608988998007E0C046B5A10000F00C002003208DF84A00A07AE57A194A8D
:2018CC008DF8520006218DF853500DF14A0006F05DFD616A30B1A77021B1086810B1096807
:2018EC0038468847208A810807D3184920F002002082304605F0B6F9208AC108FFF4CDAD73
:20190C0020F00400A57B2082681E3FF4ACAD401E7FF4C3AD06F08EFBBFE5C0460DA00000BC
:20192C00D9A10000CDA10000A80C0020480C0020580C0020200C0020380C0020870C002084
:20194C002C0C0020680C0020320C00203E0C00202DE9F84F8046DD480122A0F130010A6030
:20196C00D7490F68002FFCD0D74ED64AC02706F1040B1760DBF80010890804D23168090C28
:20198C0041F0F00100E07221E34AE44D4FF0000982F85412A5F1D407C0F80090D6F808A0F1
:2019AC003868C0F3046008F00FFB5246534600EB2270401C162805DA10F10A0FB8BF6FF04B
:2019CC00090000E01520E649E64F00F01F0040F4F8500880386880083ABFE348C0F80090D2
:2019EC0042F04062E149A5F13C04D00E970E80F0010000F00100086087F0010000F0010051
:201A0C0088602068C0F38367C0F38F215FEA9A4022D243F3072000280BD54242484649086B
:201A2C0005D17F0806BF0127391C4FF6FF71521EF5D1002810DD4FF6FF72490041F00101C9
:201A4C008A4207D27F0047F001070F2F92BF01210F27111C401EF0D141EA0741182007F042
:201A6C00F7F820682768C34CC0F3870140F2FF324B4607F0030041EA0021274688B22C21DC
:201A8C000090A7F1400006F01DFBA5F110073868C0F30D011C2007F0DBF8B54957F8080C4F
:201AAC00014000F07C400143142007F0D1F857F80C1C01F47C000904090C0143102007F080
:201ACC00C7F857F8042CDBF80010C2F30350C2F30343490812D231680E0510EB267003D48D
:201AEC001028A8BF0F2000E04846090413EB217303D4102BA8BF0F2300E04B4643EA0013A3
:201B0C0002F47F4002F0FF01B8F1220F40EA034041EA000124BF02F0804211430C2007F091
:201B2C0097F8B8F1220F32BF01202868C0F30070B8F1220F4FEA400040F0200084F8090142
:201B4C0026BF2868C0F3407001208B4EB8F1200F40F0100084F8090138BF494606D3316811
:201B6C00C80C00F44070C1F384510143282007F06FF8B8F1200F26BF3068C0F30150484687
:201B8C00B8F1220F4FEA400040F0600084F80C0126BF2868C0F3C0604846B8F1220F4FEAE4
:201BAC00C00040F0800084F8010126BF2868C0F345504846B8F1200F4FEA800040F47C405F
:201BCC00A4F89C0138BF6D490AD3306801038A15920501F47C1100F00F00114341EA003133
:201BEC00082007F035F82E464FF480002060A6F1D000816D40F20F226FF31F418A4213D9A4
:201C0C0001680068C1F30367C0F3034007B17F1E072805D006280EBF0720801C00F00F00BD
:201C2C003D4947EA00100870CAF381477F1E02D07F1E28D023E03168880C20D24FF48040AB
:201C4C0020604F48D0F802204B0AC1F3033703F0800322F08F02134347EA0302C0F80220B5
:201C6C00D0F801300F0A67F30303C0F80130026801F0E70722F0E70247EA020102E04FF064
:201C8C00004120460160DBF80000C0F3C0070FB94020A0624FF400703E4F206428684FF026
:201CAC004008C0F3C14040F0300084F8C800CAF38150A8B3401E0BD0401E28D0022127E0D6
:201CCC009402224300600C40AC3F005040100940012007F0B5FE05460420294606F0C6F820
:201CEC00042007F0ADFE8542FAD12648056825F07F4007F0F3F93846143000680368072131
:201D0C004FF06022280E98474FF4806020600321042006F0ABF80AE0026008408C130050DA
:201D2C000420012106F0A2F8174807F0D7F9203E30681649164B47F6180500F03F0084F8E0
:201D4C00CB0F3A460D8018681068C168022088471248114EC0F8008001213160BDE8F88FAE
:201D6C006E6208400000094094042A4300002043FCFCFC0040A00C409813005000803F4074
:201D8C000A600840A83F0050BD37860070B00C402C200940A00100109404604200600C403C
:201DAC002DE9FE4FB84C0F460646F80B80F04781B80880F0D480B54DDFF8D892DFF8E0B2A4
:201DCC00DFF8E882DFF8F4A22C68B80F67D2B0480678002E47D1380947D3AF4801264946F1
:201DEC00067000240C70204603F0CDFAAB4808F031F9AC492246584608F0FAF9AA4801783B
:201E0C0001291CD141460B78CBB9A94E306880B107F0FAFF2B68A8493668A64D0A68C01A00
:201E2C00000B82182860B2EBC61F28BF0C6007D20A60A4484FF0005107F0A2FF2CE00670BB
:201E4C00504640F609010180417B01F0F00141F0010141734480017B01F0F0010173446060
:201E6C00974E306018E0390914D2B80BC0F004819D48001D08F0C8F9061C08D0706830B15B
:201E8C007468F068B6F91C1098A20CCAA04727F40057F1E00021017027F00807ECE0ECB1CC
:201EAC00042007F0CDFDC8B107F0AEFF864A29681060814226BF401A401E401A000BF0602E
:201ECC00F06800F58D70F060F16840F6C410884203D340F2EE228A4200D9F0600024D6F830
:201EEC0018C02C60BCF1000F10D050460D30007810F00F0F0AD1708C40F60901814205D1BD
:201F0C007CA20CCA30466FF48071E0476F495846224608F06DF94546287850B10220ADF8C1
:201F2C000000684607F040FB2C70BDF808006849088049460120674A674B087010781C7084
:201F4C00401C1070192007F0E5FF756925B16BA20CCA30462146A84727F000578CE004F153
:201F6C000C0A504608F050F9061C5FD006F084FD7368B2690025B561E3B1F37F42F0020233
:201F8C004FF00009904603F007035B1E07D05B1E03D09B1E06D15BA002E05CA000E05DA038
:201FAC0090E800037268F068B6F91C104B4694464246E04708F00EFA8046B4F91200401C92
:201FCC006FF31F306082E0681F30017801F07F010170504607F05CFE404608F0F7F9F068C3
:201FEC00B0F99410B4F9122091421FD13B49097801291BD090F896409CB904688CB13849EF
:20200C0009680968B1F1FF3F10D0364909687030B4FBF1F108F0D6F9F068703008F0EEF953
:20202C0004E080F89650284605F088FA504608F0EBF827F0020708B147F002071CE008F0EF
:20204C00C9F901462046083008F0DEF80646B469084608F0BBF9A0080CD25EB17068B16915
:20206C00A143B16130B17568F068B6F91C1000232246A84727F480471FB11248394607F071
:20208C007FFEBDE8FE8FC046C0230020082400202B24002027240020252400202D70000050
:2020AC0074230020619700002924002024240020042400201024002000240020D423002099
:2020CC0000100440702200200C24002075510000382300202D24002026240020C915002084
:2020EC001424002078C00000C023002000000000200000000000000000000002000000001F
:20210C00000000040000000000000010000000000000004000000000000000202DE9F04FEA
:20212C0009AFADF13C0D08900A92388809911E46ADF81800101C08BF002000F08481002716
:20214C0000F101094FF0FF3A4FF0010BB8466CE1252940F063811078521C0A922D2818BF4A
:20216C00ADF8068005D15846551CADF8060010780A9530281CBF4246434605D10A99087834
:20218C005A465B46491C0A912A28CDF80080554616D1306804930A99CDF808A0C01C4B1C57
:2021AC0020F00300001D306050F8044C0A93002C0878009418D5ADF806B06442009413E069
:2021CC0044460AE0610001EBC40140180A99A0F1300408780094491C0A91302801DB3A2803
:2021EC00F0DBCDF808A004932E282BD10A9908782A2801F101010A9111D13068CDF80880E7
:20220C00C01C20F00300001D306050F8045C002D48BF454608782B46491C0A9111E0454642
:20222C0043460AE0690001EBC50140180A99A0F1300508782B46491C0A91302801DB3A28BC
:20224C00F0DB02930AB1224604926C2804D04C2818BFADF8048005D10A990878ADF804B02B
:20226C00491C0A910BA9CDF80C800FAB07916428059300F08B80692800F08880BDF818C0C6
:20228C00752872D078286ED06F286AD0702850D063283DD073281ED009980A990128A1F1CC
:2022AC0001010A9115D96B490C68B5F1FF3F03D0A84288BF6D1C00D8099D029508A80AA976
:2022CC0032466B46A047C7190A99039801F1010974E040462AE030680A99C01C20F00300BA
:2022EC00001D306050F8040CBCF1000F01F10109014608B955A00146079107F0A3FD03900F
:20230C00B5F1FF3F5BD0A842C4BF281C039056E03068C01C20F00300001D306010F8040CDC
:20232C005D468DF82C000A990395584601F1010945E0082035680490E81C20F00300001DB6
:20234C00306050F8041C082210230FA804F04EFF401E0790402101700A99079801F101091F
:20236C0029E0082302E0102300E00A230A99306801F10109C01C20F00300001D306050F8E0
:20238C00041CAA42BCBF2A1C049210E00A99306801F10109C01C20F00300001D306050F8C3
:2023AC00041CAA42BCBF2A1C04926FF009030FA804F01CFF0790059D281A0390009C241A95
:2023CC00BDF8065000945DB906E008A8202109AA07F0C0F8009C7F1C641E0094F5D5039851
:2023EC000546401E039075B9BDF80600E8B10098401E009019D408A8202109AA07F0AAF863
:20240C0000987F1CF4E70798411C0791017809AA08A807F09FF803987F1CE1E708A809AA43
:20242C0007F098F87F1C09F101094A460A9812F8011C401C00290A907FF48AAE089808B1EE
:20244C004146017038460FB0BDE8F08F286E756C6C2900C0B0C000002DE9F04F0546BB4838
:20246C00BC4EDFF8F4B2DFF8F4A2DFF8F492DFF8F4820F46002DADF12C0D0488089240F003
:20248C00BE80BE488168B24D099129680791FCB1306801421CD058460068014204D1504619
:2024AC0000680088014213D0AF4840F209130568009368A201926EA3029303970022049220
:2024CC000592434606921A884B4618685CA3A847022F71DA002F6FD0A84D08993A46681C13
:2024EC0003F08EFF002C28460799478030D0306801422DD058460068014204D1504600685B
:20250C000088014224D0099D974B40464E460288AF781C6830680FF2281C002F08BF0FF245
:20252C00601E05D0012F0CBF0FF2681E0FF27C1E4FF48E7362A700932E46019733880293E3
:20254C00CDF80CE000250495059563460695A047099C271C70D0854DDFF820822878002404
:20256C004FF6FF7AA04267DDA0003E18385A82451ED0B078E0B108F10C000421C2687E4B58
:20258C00934204D0491E00F11000F7D110E08146B078410805D3308801214A4604F0ACF854
:2025AC00B078800804D3308802214A4604F0A4F82878641CE4B2D5E76D4832680168002C37
:2025CC003AD0114238D058460068014204D150460068008801422FD0634840F22516046820
:2025EC00009642A5019502970123039300220493464605924D460692328828681AE05C487A
:20260C000168CCB13068014216D058460068014204D150460068008801420DD0554840F274
:20262C000D1740A604680097434601964F4602951A88386802A3A0470BB0BDE8F08FC04682
:20264C00626174746572795F736572766963652E6300C046536574506172616D65746572BF
:20266C00203A202573206C656E3A20256400C046426174746572795F4C6576656C00C046BC
:20268C004E6F74692F696E642064697361626C656400C0464E6F74696669636174696F6EE5
:2026AC0020656E61626C656400C046C0496E6469636174696F6E20656E61626C656400C0B0
:2026CC005472616E736D697474696E67206E6F74692F696E642D20636F6E6E48616E646CC4
:2026EC00652025642C20257300C046C04C656E677468206F75747369646520626F756E645F
:20270C00733A204C656E3A202564204D696E4C656E3A202564204D61784C656E3A20256450
:20272C002E00C046536574506172616D657465723A20506172616D657465722023256420A5
:20274C006E6F742076616C69642E00C0CEC0000088C00000400500003C0500004405000059
:20276C00A4C0000084050000A0C00000000C002084C000009CC00000351300203413002065
:20278C002DE9F04FAD49AE4EAE4DAF4CDFF8BCB2DFF8BCA2DFF8BC92DFF8BC820F88401E47
:2027AC00ADF1240D00F09F80401E00F08480801E61D0401E4DD0401E2ED0401E17D0401E94
:2027CC0040F0D7803168002F00F0D3802868014200F0CF802068014205D15A461068008808
:2027EC00014200F0C68040F2D32068A774E03168002F00F0BE802868014200F0BA80206851
:20280C00014205D15A4610680088014200F0B18040F2C1205FA75FE040F2153004A902F021
:20282C00F9FA04A805F086FA3168002F00F0A1802A68114200F09D802268114205D15A465A
:20284C0012681288114200F094804FF42F7758A684E03168002F2AD02868014227D02068A2
:20286C00014204D15A461068008801421FD04FF4337059A70FE03168CFB12868014216D0BB
:20288C002068014204D15A461068008801420ED040F2C52056A74246146800260090534664
:2028AC0001974D46029618682A8833A3A0476B4807F05AF85DE03168002F5AD0286801425C
:2028CC0057D02068014204D15A461068008801424FD040F2B2204BA7424614680090019701
:2028EC00002602963FE04FF4417006A902F092FA9DF819308DF8113000218DF814109DF8CB
:20290C001A208DF813109DF818008DF812209DF81D308DF810009DF81C208DF8173004A9A4
:20292C008DF816209DF81B304D4A8DF81530086810604B68536006A805F0FCF93168C7B1A0
:20294C002A68114215D02268114204D15A461268128811420DD040F2AD272DA6424614682E
:20296C0000970196029053464D4618682A8802A3A04709B0BDE8F08F70726F6A6563745F6E
:20298C007A65726F5F6264732E6300C04572726F7200C046436F6E6E656374656420616EF0
:2029AC0064206164766572746973696E6700C046436F6E6E65637465642E20506565722054
:2029CC00616464726573733A201B5B33326D25731B5B306D00C046C0436F6E6E65637469BF
:2029EC006F6E2074696D6564206F757400C046C0446973636F6E6E6563746564202F2049F2
:202A0C00646C65004164766572746973696E670047415020697320737461727465642E20BC
:202A2C004F757220616464726573733A201B5B33326D25731B5B306D00C046C0CEC00000AD
:202A4C0088C00000400500003C05000044050000A4C00000840500009CC000006C08002076
:202A6C007B0F00202DE9F04F09AFADF13C0D07900A930992089138793F880B90084605F0EE
:202A8C0053FF0546DFF874A2DFF87492DFF87482DFF87CB2A148002D06880C9540F0AB8051
:202AAC009F48FF25002401680D9516B35046006801421ED048460068014204D140460068DC
:202ACC000088014215D097484FF4CF73056800935EA201926EA30293079803900A98049035
:202AEC0005970B98894B06901A88874B186853A3A847002F4BD10A9D67A2ED19022D27DA17
:202B0C00C5B90B98182818BF122813D15046594600680968002E38D0014236D048460068D0
:202B2C00014204D140460068008801422DD040F2B7161FE0089809990A9AC068381803F06C
:202B4C005FFC002D42D00C980D90734E35803DE058460168CEB150460068014215D04846C1
:202B6C000068014204D140460068008801420CD04FF4D776674805680096644B0192624E00
:202B8C0002941A8830682DA3A8470D241EE059460968D6B150460068014216D048460068B7
:202BAC00014204D140460068008801420DD0594840F2A91641A305680096544E0193524B0F
:202BCC000294328818681DA3A84707240D98FF280FD05148801C006858B106684EB10A98DF
:202BEC000C9A099B3F18B8B20090079841F21011B04720461FE059460968DEB15046006842
:202C0C00014217D048460068014204D140460068008801420ED03F48046840F2A31730A624
:202C2C0000250097394B0196374F02951A88386802A3A0470A200FB0BDE8F08F6C65645F25
:202C4C00736572766963652E6300C0465772697465417474724342203A20257320636F6E43
:202C6C006E48616E646C6528256429206C656E28256429206F666673657428256429206D6D
:202C8C006574686F64283078253032782900C0464C45443000C046C0496E76616C69642064
:202CAC0076616C7565206C656E677468207761732072656365697665642E00C0416E206951
:202CCC006E76616C6964206F666673657420776173207265717565737465642E00C046C072
:202CEC0041747472696275746520776173206E6F7420666F756E642E00C046C040050000C3
:202D0C003C05000044050000A4C000008405000084C000009CC000001A140020CEC00000B4
:202D2C0088C00000A0C00000F8B5A0F2013517460E46022D40F214818A4A8B498B4B2D1FF9
:202D4C000F2D04D9143D4AD0AD1E1CD011E0DFE815F0C300BC00F400E400B300AB000701B2
:202D6C00A2009A00100010009200880079006F006300282880F2F480022E40F0F1803988BE
:202D8C0005F0E4FEF8BD012E40F0EA8015462879012800F0E58051793878507181B90028BB
:202DAC0000F0DE809078012800F0A980042800F0A680062800F0A380052800F0A080F8BDFA
:202DCC003878002840F0CC809078032800F0A280072800F09F80052800F09C80F8BD012EF3
:202DEC0040F0BE803878012840F0BA80154605F1F00007F087F8002840F0B2802C46002043
:202E0C0004F13E0103F02EFF002840F0A98004F1CC0007F0FBF9F8BD022E40F0A18038882F
:202E2C000A28C0F29D80B0F5486F00F3998015E0022E40F095803888B0F5FA7F80F2908053
:202E4C000880F8BD022E40F08B8038880628C0F28780B0F5486F00F383801946891C0D466E
:202E6C0038E0022E7CD13888062879DBB0F5486F76DC1946F3E7012E72D1387806286FDAEF
:202E8C00891F0D460EE0012E6AD13878042867DA15460B3506E0012E62D1387808285FDABA
:202EAC0015460A352870F8BD012E59D13878042856DA1546093506E0012E51D1387804280E
:202ECC004EDC154608352946DBE7022E48D13888154612352946B3E7012E41D115466879C2
:202EEC0001283DD011793878107161B9002837D09078012803D0042818BF052830D1012036
:202F0C0006F002FFF8BD387850BB9078022818BF052825D106F0CEFFF8BD154605F18704BE
:202F2C0000211F22204603F01DFF39463246204603F066FA0020EE710EE0154605F16804D4
:202F4C0000211F22204603F00DFF39463246204603F056FA0120AE713146224604F09AFE53
:202F6C00F8BDC046000C0020440C0020400C00202DE9F04F0128ADF1140D40F0F280DFF8CC
:202F8C001492D9F8DC00012840F0E9800220C9F8DC0007F013FA0290012005F06BF920B170
:202FAC0001210646C9F8DC10D5E007F003FA03906E484FF00008C0F80080012006F040FD25
:202FCC00012818BFCDF8008004D1404604F066FD0120009066486E4CC0F800801934D4F884
:202FEC00FF0F112007F06CF800280CBF46460126102007F065F808B146F002060F2007F0E4
:20300C005FF808B146F004060B2007F059F830B1584800685849006B0246088890470A2013
:20302C0007F04EF80028404618BF01204FF0805B0BF5DC7528B128685049006B02460888F1
:20304C0090474F480127076028688069014646F0200088474B48076007F02CF800F001017B
:20306C000191400815D2484806F0B5FF8246BAF1040FF8D0BAF1010F06D1DBF8D801406815
:20308C0002464148032190474049086820F003000860404600F084F92868D4F8FF1F806B8C
:2030AC008047019801280ED0BAF1010F06D1DBF8D8014068024634483946904733490868B1
:2030CC0040F0030008602A480760286840690146304688470B2006F0F3FF28B128682649C0
:2030EC00C06A0246088890470A2006F0E9FF28B128682249C06A0246088890472048076067
:20310C000322C9F8DC201F4BC3F800802868406B0146304688470128F8D1042005F0AAF8A8
:20312C00124807601A48D4F8FF1F01688909FCD30098012802D1384604F0B0FC06F0B4FF51
:20314C00082005F097F806460398C9F8DC7007F02DF904F011FB029807F024F902E00426EC
:20316C0000E00126304605B0BDE8F08F0C40094000022243B8010010DABC0000D6BC000000
:20318C002820086080010443004003402422084014100940401100202DE9F04F09AFADF111
:2031AC003C0D08900B930A920991B8883E880C90084605F097FC6F49DFF8C8B1DFF8C8A18E
:2031CC00DFF8C89100280D88DFF8C48107955CD16A4C69482168008800240D900DB3684868
:2031EC00006801421DD058460068014204D1504600680088014214D066484FF4C1730568CE
:20320C00009339A2019247A30293089803900496387A434605904F4606941A8838682DA344
:20322C00A8470D98B0420EDB0C99801B8842D4BF82B20A1C0B9802800998C06831180A9843
:20324C0003F0DEF81FE05448079F0168D7B14C480068014216D058460068014204D150468E
:20326C000068008801420DD04C4840F28D1731A605680097434601964F4602941A88386860
:20328C0014A3A8470724204620E0434801682F1C1BD03B480068014217D058460068014263
:2032AC0004D150460068008801420ED03B48046840F2871728A600250097434601964F4688
:2032CC0002951A88386803A3A0470A200FB0BDE8F08FC046626174746572795F736572764F
:2032EC006963652E6300C04652656164417474724342203A20257320636F6E6E48616E6403
:20330C006C653A202564206F66667365743A202564206D6574686F643A20307825303278C1
:20332C0000C046C0426174746572795F4C6576656C00C046416E20696E76616C6964206F3E
:20334C00666673657420776173207265717565737465642E00C046C04174747269627574A9
:20336C006520776173206E6F7420666F756E642E00C046C0CEC000003613002088C0000091
:20338C00400500003C05000044050000A4C0000084050000A0C0000084C000009CC0000065
:2033AC002DE9F84FDFF8E8B10746ABF13500DFF8D4910068800880F0D68006F0E1F8064609
:2033CC0077480830D0F8008000254FEA28725FEA985002F101020AD2C6F13E0016F10A0F92
:2033EC004FEAE000D8BF08208242B8BF021C624BD3F87C01C0F3046006F0E6FD04461868E1
:20340C00C0F3044006F0E0FD12198246162A05DA12F10A0FB8BF6FF0090200E01522574B0E
:20342C00574802F01F0141F4F8511980006810F0030F18BF0125C00828BF45F002050FB196
:20344C0045F00405494691F90700301A052804DA8879A84208BF888865D0DFF82CE10F2E95
:20346C00A6F10F0C25DB0CEB0610A0F1F00C4FEA2C27072F88BF07273C46062C88BF062498
:20348C005EF82400042303EB84037446E3581B1A03F0FF04E80824BFC3F307200444A80842
:2034AC0024BFC3F307400444680828BF04EB136401E0002427465EF827E0E8080EF0FF035C
:2034CC0024BFCEF307200344A80824BFCEF307400344680828BF03EB1E63A4B2ACEB07270B
:2034EC00BAEB020004FB07F404F1800403EB1423D8BF0120342208F0FF0742437A43B2FB86
:20350C00F3F04FF6FF72824238BF101C802E80B2888005DA16F1800FB8BF6FF07F0600E087
:20352C007F26CE718D71194A12681F280A604FF0000208D340F2FF11814206D24008521C60
:20354C008142FBD301E01F208880124F0F38000942EAC00247EA0200CBF8FB0F0026CBF81E
:20356C00FF6FBDE8F88F0D4F0B4E494608203760891D0870BDE8F88F3C1100506E620840A3
:20358C0024220840F82300209C130050082009403500094000E7A48030100940FDFDA40036
:2035AC00AC3F00502DE9F04F09AFADF13C0D08900B930A920991B8883E880C90084605F07F
:2035CC00B3F96C49DFF8BCB1DFF8BCA1DFF8BC9100280D88DFF8B88107955CD1674C6648EB
:2035EC002168008800240D900DB36548006801421DD058460068014204D150460068008844
:20360C00014214D063484FF4B0730568009338A2019246A30293089803900496387A434673
:20362C0005904F4606941A8838682DA3A8470D98B0420EDB0C99801B8842D4BF82B20A1C42
:20364C000B9802800998C06831180A9802F0D8FE1FE05148079F0168D7B149480068014252
:20366C0016D058460068014204D150460068008801420DD0494840F26B172EA60568009777
:20368C00434601964F4602941A88386814A3A8470724204620E0404801682F1C1BD03848B3
:2036AC000068014217D058460068014204D150460068008801420ED03848046840F265170D
:2036CC0025A600250097434601964F4602951A88386803A3A0470A200FB0BDE8F08FC04629
:2036EC006C65645F736572766963652E6300C04652656164417474724342203A20257320D4
:20370C00636F6E6E48616E646C653A202564206F66667365743A202564206D6574686F6495
:20372C003A2030782530327800C046C04C45443000C046C0416E20696E76616C6964206FA6
:20374C00666673657420776173207265717565737465642E00C046C04174747269627574A5
:20376C006520776173206E6F7420666F756E642E00C046C0CEC000001A14002088C00000A8
:20378C00400500003C05000044050000A4C0000084050000A0C0000084C000009CC0000061
:2037AC002DE9F0411C4615468C4208BF854282BF00230022E5E0002C08BF002D0AD100292E
:2037CC000EBF00286FF000006FF0000100F0E1F8BDE8F0815FF000085FF0000E002C08BFA3
:2037EC008D429CBF2C1C0025070C47EA01470E0CB44208BFBD429EBF5FEA044444EA15444F
:20380C005FEA0545070A47EA01670E0AB44208BFBD429EBF5FEA042444EA15645FEA0525A3
:20382C00470847EAC1774E08B44208BFBD4200F29380870847EA81778E08B44208BFBD42A3
:20384C007CD8C70847EA4177CE08B44208BFBD4266D8070947EA01770E09B44208BFBD42F4
:20386C0050D8470947EAC1674E09B44208BFBD423AD8870947EA81678E09B44208BFBD424A
:20388C0024D8C70947EA4167CE09B44208BFBD420DD8E60146EA5566EF01B14208BFB84289
:2038AC0001D3C01BB14158EB08085EEB0E0EA60146EA95664FEA8517B14208BFB84201D374
:2038CC00C01BB14158EB08084EEB0E0E660146EAD5666F01B14208BFB84201D3C01BB141D0
:2038EC0058EB08084EEB0E0E260146EA15762F01B14208BFB84201D3C01BB14158EB08085A
:20390C005EEB0E0EE60046EA5576EF00B14208BFB84201D3C01BB14158EB08084EEB0E0E69
:20392C00A60046EA9576AF00B14208BFB84201D3C01BB14158EB08084EEB0E0E660046EA58
:20394C00D5766F00B14208BFB84201D3C01BB14158EB08085EEB0E0EA14208BFA84201D32C
:20396C00401BA14158EB08085EEB0E0EA34208BFAA423EBF2D0A45EA0465240A89D373469F
:20398C0042461E4617460B46024631463846BDE8F08170472DE9F843814606F07FFB0021CE
:2039AC0000B901216B4E30680028FCD06C4D01242D1DEF6A346009B106F076FBDFF89881B5
:2039CC00C7F3072008F1BC01086006F067FB002100B9214630680028FCD02F68346009B1D2
:2039EC0006F062FBC7F38440C8F8C00006F056FB0146002001B92046014630680028FCD0C9
:203A0C00ED69346009B106F04FFBC5F38120C8F8D000B9F5C061C8F8B81000F0968098F8E0
:203A2C00D80068B9C8F8D410D8F8C000C8F8C800D8F8BC70C8F8C470D8F8D060C8F8CC60E9
:203A4C00D8F8D410D8F8BC60002954BF02206FF00100454605F1C8031A6801EB41014018A8
:203A6C00411000EB917002EBA0021A60D5F8C810C5F8C46000291CDD1E293DDDD5F8CC0052
:203A8C0030B93429B4BF15391E21C5F8C81025E02A29BABFD5F8C8000B381E20C5F8C800D3
:203AAC00D5F8C4003F28B4BF401C3F20C5F8C4001FE0D5F8CC00032812D011F10B0FC6BF0D
:203ACC00D5F8C8000B30201CC5F8C800D5F8C4000028CCBF401E0020C5F8C400032009E0FA
:203AEC0011F1150FC6BFD5F8C8001530201CC5F8C8000020C5F8CC00B5F8C400174E3021A4
:203B0C004FF47F4208230090304604F0DBFA009404214FF400321123304604F0D3FAB5F855
:203B2C00C80004214FF4F80212230090304604F0C9FAB5F8CC0020214FF440620A23009001
:203B4C00304604F0BFFABDE8F883002088F8D800BDE8F88300800C404011002000A00C4055
:203B6C0000A00C402DE9FC416F4C204606F04CFB15460E46009006F02DFC05F0010780467B
:203B8C00B6F1FF3F0DD1606820B9B4F91200401C06B202E06068B0F91C6064490020C91C61
:203BAC000870304605F054FC0326002800F0A4806168814270D0009FDFF848C1B84231D01B
:203BCC003FB100990A68904209D0096800290091F7D1832E44D0404606F0F8FB40E0604646
:203BEC0005F0C2FE00990868AA0803D202680B4601461A6000220A60009078B10C3401462C
:203C0C00C87F40F00400C877684606F041F80146204605F085F800980028F0D1404606F0E5
:203C2C00D5FB1CE0604605F09FFEA8083ABF2068006800202060404606F0C8FB0C34009923
:203C4C00C87F40F00400C877684606F021F80146204605F065F8009808B1A808EFD2832677
:203C6C0029482C4A007890B928480078012846D0274806F0EFF90221104606F081F82648C6
:203C8C00007801283BD0254806F0E4F937E01046022106F075F832E0A90803D32168009186
:203CAC0000262660C27F0121B9401143C17706F081FB0646002F14BF19481A4805F074FC7C
:203CCC00404606F083FBA80811D3009878B10C340146C87F40F00400C877684605F0D8FFCE
:203CEC000146204605F01CF800980028F0D1304606F05CFB832602E0404606F067FB3046DF
:203D0C00BDE8FC81D82200202624002025240020AD1D000070220020272400203D5B000009
:203D2C000100020401000104C02300203823002003462DE9F04F6448654DDFF898B1DFF8F9
:203D4C0098A1DFF89891DFF898810F46002BADF1240D068807924ED15C480168F6B1286855
:203D6C0001421BD058460068014204D1504600680088014212D05B48ED230468009331A2BB
:203D8C00019237A302930397002204920592434606921A884B46186826A3A047022F00DA9D
:203DAC000FBB51482A680168002E40D011423ED058460068014204D1504600680088014213
:203DCC0035D04848FD260468009627A5019502970123039300220493464605924D46069261
:203DEC003288286821E0414C07993A46204602F007FB67801BE03C480168C6B1286801424C
:203E0C0015D058460068014204D150460068008801420CD03648F12721A604680097454603
:203E2C0001964F4602932A88386802A3A04709B0BDE8F08F6C65645F736572766963652E47
:203E4C006300C046536574506172616D65746572203A202573206C656E3A20256400C046C6
:203E6C004C45443000C046C04C656E677468206F75747369646520626F756E64733A204C9B
:203E8C00656E3A202564204D696E4C656E3A202564204D61784C656E3A2025642E00C0469E
:203EAC00536574506172616D657465723A20506172616D6574657220232564206E6F7420D1
:203ECC0076616C69642E00C0CEC0000088C00000400500003C05000044050000A4C00000CF
:203EEC0084050000A0C0000084C00000181400209CC000002DE9F04FADF1840D209001F0BC
:203F0C0019F804F0BBF80024012804D105F090FE022808BF012459490868C0F38150012863
:203F2C0005D151F80C1C0120090E884004435448007805F0EBFBDFF84C81DFF84CA1C8F8D0
:203F4C00000030B15246FF2107467F1E02F8011BFBD120990968002501F0FF02FE2A1BD09C
:203F6C00DDF880C052462B46012701F0FF06FF2E0BD0B04203D907FA06F6344201D00220BD
:203F8C0079E001F0FF01354353545CF8041F5B1C01F0FF06FE2EEAD1092001F09FFE3B49A6
:203FAC00209824220823086001A8002106F0F6F94FF0010901AA3E488DF81C90494606F085
:203FCC00E9F9D8F800303BB33A4E00274FF0040BBA4609FA07F0044218D1054204BF07F0DE
:203FEC00FF0141F4C04104D027482099C05D51F82010274802F05CF8F8B24FF0FF3105F02A
:20400C002DFDD8F80030C6F800A001E0C6F800B07F1C361D9F42DCD30AA8002130220823EF
:20402C0006F0B4F91B4D1D4A2878002410210AAB12901948009406F0A5F916A828220823FA
:20404C00214606F09BF9686816AA16491C9014481D94234606F08EF9134A52F80D0C494686
:20406C0020F4F85040F4005042F80D0C0F4BC2F8FF1F2046196021B0BDE8F08FB43F0050B8
:20408C002C240020F41F0020FC2200201C240020007FC7674CC000003C230020859A00007C
:2040AC003C220020618100000D3009400800094058230020C02100202DE9F84F9A4693460B
:2040CC000D46044606F086F9DFF85C810AAFB8F91220B8F91010009040F6F870891A084088
:2040EC00082880F29280B8F91000401C6FF31F30A8F81000B8F9109005F0E6FB064604F11A
:20410C00700005F031FCB56086F81EB0C6F804A0F460A6F81C9097E80C0051A003C8002534
:20412C001040F577D8F8002006F11007194087E80300002A5CD14046314604F0F1FD002890
:20414C005BD0A4F894904448F17F0778DFF8DCA041F08001F17784F8965067B151460F78E8
:20416C004FB1344A3449324B0570012015700A781870521C0A70009806F028F9D8F804002B
:20418C0000284ED15146087800282DD12B480078012846D006F01EF9054629480078F8B973
:2041AC00B06803F0A5FC284B2C4A26491B681268086038B9284606F009F92448042105F0AD
:2041CC00DFFD2EE0D0680968214C091AB1FBF3F1204606F0F7F8204606F010F928461EE004
:2041EC001C4901200870F9E7192005F093FE18E04046314604F094FD50B9B8F9100000F6DC
:20420C00FF706FF31F30A8F810006FF0010905E0A4F89490F07F40F08000F077009806F0A0
:20422C00D5F84846BDE8F88FC0230020272400202B240020242400202D24002026240020CB
:20424C00252400200424002078C0000070220020D8220020282400202A240020142400206B
:20426C00F1EFFF9F200000002DE9F04F694CA068ADF1440D002800F09D80DFF890914FF027
:20428C000A0B4FF0010A4FF000088FE006F0A2F821785F4BCA0002EB41129A18B2E8E010E4
:2042AC0007ABA3E8E010E0CAE0C364CA4F1C07F01F0183E8640004F10C05627821708A42BC
:2042CC0008BF84F802A006F081F8BDF82000002808BF2E1C09D00346A62138A2284605F04A
:2042EC0045FC284605F0AEFD2E18079FB8B205F00BFB42A20CCA01F0C5F842A20CCA01F0FF
:20430C00C1F803F0DBFFA91B00902EA23B0CA631304605F02BFC284605F094FD2A18A068F9
:20432C002946521B05F011FFBDF82200E0B106F01DF8B9F8007037B909990A9F03460091E7
:20434C0024A2019720E00A9900910B9F01970C9E02960D9B03930E9A04920F9F0597109EC7
:20436C000696099B02460FE00B9800900C9F01970D9E02960E9B03930F9A0492CDF814802A
:20438C00CDF818800A9B099A2846A62105F0EEFB284605F057FD2A180D2002F8010B02F833
:2043AC0001BBA0682946521B05F0CFFEA07800283FF46CAF11B0BDE8F08FC0462325303668
:2043CC00752000C05B2025642E25303375205D2000C046C07B6576743A20666D743D2570AD
:2043EC002C20617267733D5B307825782C2030782578202E2E2E5D7D00C046C00000000000
:20440C000000F03E0000000000408F408A050000C0020020080200202DE9DF4F6648DFF8EF
:20442C0090C1DFF878B1DFF878A1DFF87891DFF87881DFF878E1078857480E1C32A313D13E
:20444C000168002F5DD058460068014259D050460068014204D1484600680088014250D022
:20446C0040F237472DA62DE0012E17D0022E48D1002A46D10168002F43D05846006801420C
:20448C003FD050460068014204D1484600680088014236D04FF4896724A613E0A2B9016870
:2044AC00002F2ED05846006801422AD050460068014204D1484600680088014221D040F286
:2044CC003D4726A6002212E03A480168CFB158460068014215D050460068014204D148462F
:2044EC000068008801420CD040F2414723A660460468009701967746464602923A883068A7
:20450C00A0470090BDE8DF8F70726F6A6563745F7A65726F5F6264732E6300C0506169727A
:20452C00696E6720737461727465640052652D65737461626C697368656420706169726979
:20454C006E672066726F6D2073746F72656420626F6E6420696E666F2E00C04650616972A6
:20456C00696E6720636F6D706C65746564207375636365737366756C6C792E005061697215
:20458C00696E67206661696C65642E204572726F723A20253032780088C00000400500000E
:2045AC003C05000044050000A4C00000840500009CC0000084C00000CEC000002DE9F04301
:2045CC008046D8F80460D8F808700C46ADF1340D05F000FF3178012903D105F0F7FE0020B7
:2045EC00A3E04FF0010986F8009005F0EFFE207870706078B07060687060A068B060E0688B
:20460C00F06020693061207D3075607D7075A07DB075A069B061207F3077607F0025707793
:20462C00A07F35623563102186F83C10B0772C4674627463B462B46386F82C4086F82D40DD
:20464C0086F83D40786801F049FB404601F0AEFB404602F077F978B935480068C0680146B1
:20466C0038688847786801F0CFFA05F0B3FE347005F0ACFEA04657E001A821463022082392
:20468C0005F084FECDF818803A7B09920095294AB96806F1680001AB05F074FE01A828225C
:2046AC000823214605F06AFE396907912249CDF8148006F1840001AA234605F05BFE01A87B
:2046CC0024220823214605F069FEB0788DF81C9038B906F1B800214601AA05F05BFE1748E2
:2046EC003061707838B906F1D400214601AA05F051FE1348F06001A821462422082305F002
:20470C0071FE0694ADF8144006F1F0000D49CDF81C800A2201AB05F061FE0B4A06F1540021
:20472C000421434604F068FF40460DB0BDE8F083D00100106D590000C57E00008FA10000EF
:20474C0087A1000099670000319F00002DE9FC415E4C574D574EDFF860815A4F94F8E4102E
:20476C00481E0B2861D8DFE800F07B2C43062343062343067664042907D001220A2945F86B
:20478C00212C14BF0220032004E02021012045F8211C024684F8E200002045F8390C082771
:2047AC00C5F8FF7FC5F8F37F45F8392CBDE8FC81052914BF09200620002584F8E400356055
:2047CC0070E094F8E1700120383D002FC5F81B0004BF0620002102D00021F160032084F816
:2047EC00E400032045F8010C31603068800859D294F8E400012503280DD0002140466022B9
:20480C000523009103F05EFC94F8E400062814BF0A200720D1E7022000900021602205238F
:20482C00404603F04FFC0420C7E705F09BFDBDE8FC812249002622480E60012505600E2005
:20484C0001F0E2F9022004F079FC84F8E45084F8E360BDE8FC81002038600C2578601FE0A4
:20486C001948006800680146202088472C3D41F61D560F2000214FF4C072072345F8010C59
:20488C004046C5F803600225009503F01BFC404600214FF4C072072303F042FE012038606E
:2048AC0084F8E45004F1780005F0A8FDBDE8FC8139400C4038600C4000A00C402C500C40B6
:2048CC0004800C4034600C40A0010010401100202DE9F04F5E4CE7680346ADF11C0D002F6D
:2048EC0068D05248DFF84CA1DFF84C91DFF84C81DFF84CB1DFF84CC1DFF84CE106882FA2A3
:20490C003BBB4B490968002E4ED05046006801424AD048460068014204D140460068008865
:20492C00014241D0704640F2E1360568009628A3019338790290A07803900026049663465F
:20494C0005965F4606961E88386813463246A8472AE03E48016816B35046006801421ED078
:20496C0048460068014204D1404600680088014215D0704640F2E636056800961FA601961C
:20498C0038790290039300260496674605965B46069618683E8813463246A847E7683979E6
:2049AC0007F1080005F0F0F8E06805F01DF90020E060A07007B0BDE8F08FC04670726F6AAF
:2049CC006563745F7A65726F5F6264732E6300C053656E74206D6573736167652077697474
:2049EC0068206F70636F6465203078253032782E20417474656D7074202564004761766589
:204A0C00207570206D6573736167652077697468206F70636F6465203078253032782E20F5
:204A2C005374617475733A20256400C0CEC0000088C00000400500003C050000440500009E
:204A4C00A4C0000084050000A0C0000084C00000C00700202DE9FE430D460646287899465D
:204A6C0090460AAF022805D16868008842F60211814226D0284604F035F84248424F01682C
:204A8C003888D8B141480068014217D040480068014204D13F480068008801420ED03E4880
:204AAC00046840F2C1172FA6002500973B4B01963B4F02951A88386825A3A0470A20BDE8E5
:204ACC00FE83388868BBB9F1020F28D198F8010098F8004004EB002434F003001DD1E868D9
:204AEC0007683946304604F0FFFE00280CBF0020807884420FD03046394604F0F5FE48B9C8
:204B0C0039464FF6FF7004F0EFFE002808BF112708D006808470002704E0802702E00D2734
:204B2C0000E00B2716483C46076874B96FB1786858B1284603F0D6FFCDF800907D6802461A
:204B4C0041F60F0143463046A8472046BDE8FE83626174746572795F736572766963652E0F
:204B6C006300C04641747472696275746520776173206E6F7420666F756E642E00C046C000
:204B8C003813002084C00000CEC00000400500003C050000440500009CC000008405000018
:204BAC00A4C00000F8B5414C201D0368B3F1FF3F08BF002303F062FA002876D13C4E206807
:204BCC003468070F04F0FF04802C28BF002403F055FA4FF0FF3578B1401E07D0401E0128CF
:204BEC0002D9801E13D014E08FB112E0381C5CD0801E0ED114340BE03846401E55D0801E58
:204C0C0053D0001F51D0401E03D1163400E00A3465B2162D49DB274827490025012705607C
:204C2C00264E0F60264C376020680028FCD1274A161D2449244F306820F0030001433868EC
:204C4C00C0080CD2106810F0030F0AD041F003003060106800F003000328FAD101E041F007
:204C6C0001011B483160006820B11A4800681846FCF76EFE184819490560194F0A686FF30F
:204C8C005B4247EA0200086016490868C0F30130012806D10A681448104040F400320A602F
:204CAC00086020680028FCD1F8BDFEE718130050A0100050840460425C600C40082204434B
:204CCC000C00684204000020B03F00500040034080012843000120438C210840482003403C
:204CEC000000390104000940FFFFFCFC70B5ADF1380D00F01FF9324908682822082340F08B
:204D0C000200086001A8002105F038FB2D4EB0782E4907902C48002301AA05F02BFB0021FC
:204D2C003022082301A805F031FB002519213078284AADF81C5001AB09902548009505F05A
:204D4C0021FB2822082301A8294605F017FBF07822490790204801AA2B4605F00BFB30225C
:204D6C00082301A8294605F011FB01241A2170781C4AADF81C4001AB09901948009505F004
:204D8C0001FB194819492A46134605F027FB184805F060F91849194E0C70164835704FF62E
:204DAC00FF728283C577164B1D70164C257016490D70174E3560154A15700EB070BDC046A5
:204DCC00002009406AC00000702200205D9D00007423002061970000A4220020256200006C
:204DEC0090230020517B0000D8220020D99100003D5B00001C2300202424002029240020B8
:204E0C0026240020252400202A2400202B240020082400202DE9F04F0C464549CA7AADF173
:204E2C002C0D84460592487B09900D7900958A7A488B4B8A0E7B91F805A091F80280049251
:204E4C00B1F846E008904A7A088B0392CD7807900A7AC88A02920F6A0690CA79888A0192B6
:204E6C008A79E146A9F54079B9F11D0F10D8DFE809F05B5553514F4D4B494643413F3C3A24
:204E8C00380F34312E2B2923201E1C0F19181716BCF1280F49DA604603F0C2FB21E0099EE9
:204EAC00B246D046CDF814801DE00898079007980690DDF818E005E03831086820608888FB
:204ECC00A08032E070460AE0B1F8440009E0B1F8420004E0B1F8400001E091F83E00034675
:204EEC0012E0208021E0059804900498039001E03231E2E7039802900298009006E0019ACE
:204F0C0087310DE068310BE01846EAE7009D0BE02C31D2E7276008E0583100E0483110220C
:204F2C00204601F06DFA00E025700BB0BDE8F08F000C00202DE9F041444C94F8E700ADF13F
:204F4C00280D00286FD1394F387B01250021242284F8E7507E6884F8E6000823C4F80C6191
:204F6C0001A805F03FFA002604F10C00069601ABADF814602E490796324605F02FFA2D49A6
:204F8C0004F1300001AB324605F028FA2A4904F1540001AB324605F021FAB86801462846E0
:204FAC008847DFF89C8025487B7B0078D8F80410C1F381571BB1032F03D184F8E150032F27
:204FCC0016D0022F14D0012F26D103201D4C009031464FF040521C23204603F073F80095A7
:204FEC0031464FF400720923204603F06BF813E0022004F0BBF8032F0CBF4FF47A7142F276
:20500C001071114800685434B1FBF0F1204605F0D9F9204605F0F2F9D8F80000C00802D24E
:20502C00304604F0A3F80AB0BDE8F081E8BF000067720000C1680000F56B00002C24002016
:20504C00B03F005000A00C4078C00000401100202DE9F0430746880FADF1140D75D302F04A
:20506C0051FF404D00261C352E60394845F81C0C012000F088F9374804F0ECFFBC68B14651
:20508C0040F60A01344A6680537B118090465680107BC2F8049003F0F00300F0F000107332
:2050AC0043F00103537300E01C46636813B118888142F9D1C4F80480607B00F0F00060731B
:2050CC00264805F0A1F880680088C91F81421DD0491C81421AD03B8CC3B197F82C107E84A6
:2050EC0097F82D00C7F8249001F0F00100F0F00087F82C1040F0010087F82D0007F1200300
:20510C00C8F80430507B00F0F0005073B868694604F0BAFB684604F0EDFEB86801F00BFA06
:20512C0028680028FCD02E60012004F089FC012808D0607B00F0F00040F0010060730848A7
:20514C0004F088FFB86845F81C0C05B0BDE8F08301010E04AD1D0000D4230020C02300207E
:20516C00A5790000001004402DE9F04104F078FD3F4D3E4EDFF8FC800446A00820D330463B
:20518C004168E9B1002242608B690A690F6922401A4342F0020205F108038A611A68BA43BD
:2051AC0001F110071A6097E80C002A680C301B1C9A432A6003F0B4FD4046022104F0E0FD4B
:2051CC007068A10815D200F1100191E80C00002702EA04013B40002B08BF002909D0816963
:2051EC001440B0600C4384614FF48041404604F0C7FD7068002837D1304605F005F8071C36
:20520C0032D01E48F9680068884228D1B86802F06FFC19490860E8B905F1080138690A6894
:20522C00104308602B6807F1100494E80300081C1843286000222A61B86845F80C0C05F16A
:20524C00100000680028FAD0304604F021FD7760BDE8F081086802F071F9BDE8F0814046FB
:20526C004FF4805104F08CFDBDE8F081C02300200C100440702200200424002014240020C6
:20528C002DE9F0430746ADF11C0D05F067F803F00DFF4FF000090646CDF80C9004F028FF42
:2052AC0030F0010002D00398B04202D16FF0040066E078684C4658B1B0F1FF3F05D004A90A
:2052CC0003F0DCFE30B1804659E04FF0FF3000E02046049005F03EF8049D4FF001082D1874
:2052EC0002E00A463BE004937068049905F02EF800282DD0684602F0A7FBD8B99DF804009D
:20530C0005A903F03DFC88B9BB68BDF814009DF80610029A984748B1BDF814009DF80650A7
:20532C00B881029BBD73C8463B6111E0029903A804F036F80498641CB0F1FF3FD4D0002891
:20534C00D2D005F007F82B1A02D004989842CAD2039F04F0D7FB06F1080547B13A4652F854
:20536C000C1C0029BDD1296842F80C1C2F6004F01FFD24B1706804F0E5FF641EFAD1404658
:20538C0007B0BDE8F08370472DE9F04707467D68D7F8089090460C4605F01CF8AE6A824684
:2053AC00002E64D105F1F00004F0DEFA2C620024EC7750466C6205F009F805F00BF82F4EE8
:2053CC003378824623B9022003F0D0FE01203070504604F0FBFF2A4A1068414640F48070B3
:2053EC001060384603F02CFBA862C0B93846414602F0D4FDA878D0B9A96805F1B80004F0F2
:20540C00A5FFE8B9AC621020E8774946284601F07BFE04F0DFFF8246307840B323E0D9F82E
:20542C000010886B40F020008863A87810B12046BDE8F087A96805F1B80004F087FF10B1C5
:20544C00686ABDE8F0873846414602F0A7FD1020AC624946E877284601F056FE04F0BAFF2B
:20546C008246307818B1022003F068FE3470504604F0ACFF4FF0FF30BDE8F0873024002095
:20548C00301000402DE9FC4191EA03084CBF4FF000484FF000084FEAC32545EA52554FEA9E
:2054AC00C2264FEA43077F0D11BF45F0004500210020BDE8FC815FF4E06E1EF1FF0E7745C3
:2054CC0055D04FEAC12343EA50534FEAC0224FEA4104640D11BF43F0004300210020BDE878
:2054EC00FC81744543D0E419A3FB0501A3FB06E7A2FB06631EEB030E57F1000751F1000179
:20550C00A2FB05631EEB060E57F1000751F10001FF1851F10001C01951F100014CBF4FF407
:20552C00806E4FF4007E10EB0E0051F1000148BF641C01D4400049415FF44077FF37E41BFF
:20554C00DEBF00210020BDE8FC8117F58067BC420DD24FEAD02040EA41504FEA41014FEAD7
:20556C00113141EA045141EA0801BDE8FC810020FF21C900C91D090551EA0801BDE8FC81A4
:20558C00B0B5074634480168344800881425ADF1300D08B33248006801421DD031480068A2
:2055AC00014204D1304800680088014214D0314840F275430468009319A2019241F60F033F
:2055CC0002930397002204920592294B06921A88264B18680DA3A0475FB92749C878012220
:2055EC00401CC0B2C870401EC1B207A801F0BAFB012507A80090FBB24FF6FF7141F60F0264
:20560C000195022002F0F4F90CB0B0BD70726F6A6563745F7A65726F5F6264732E6300C0BF
:20562C0028535749292047656E6572696320636C6F636B2068616E646C65723A207376636D
:20564C00283078253034782920706172616D49442825642900C046C088C00000CEC0000010
:20566C00400500003C05000044050000A4C0000084050000A0C00000C007002035482DE988
:20568C00F0410E4601683448008806AF98461546ADF1200DF8B13148006801421BD0304823
:2056AC000068014204D12F4800680088014212D02F4840F256430468009312A201920296B2
:2056CC0003950023049305930693284B1A88264B186807A3A047CDF80080388832462B46B6
:2056EC000190002002F084F908B0BDE8F081C04670726F6A6563745F7A65726F5F626473FC
:20570C002E6300C0284342292043686172616374657269737469632076616C756520636865
:20572C00616E67653A20737663283078253034782920706172616D4944282564292E2053E9
:20574C00656E64696E67206D736720746F206170702E00C088C00000CEC0000040050000F4
:20576C003C05000044050000A4C0000084050000A0C000002DE9F04390460A68D8F80040A5
:20578C001678814600271D463846ADF1140D531C242E0B6053D112F8016F5B1C4C2E0B60BB
:2057AC000ED1AA68E41C24F00304241D54F8040C494602F06BF82968EF600127091A29609C
:2057CC00462E1AD1E41C24F00304241D54F8040CE41C029024F00304241D54F8040C002735
:2057EC0049460390AA68ADF8047001A800F056FE2968EF600127091A2960532E1FD1E41C3E
:20580C0024F00304241D54F8040CE861C8F80040288B0090A968EA69D9F800004346FCF787
:20582C007DFCD9F80040002714B10119C9F80010D8F800402968EF60091A01272960662EA3
:20584C000AD12B8B23B9E41D24F00704083403E0E41C24F00304241D1FB9E9690E70012764
:20586C00EF60C8F8004005B0BDE8F0832DE9F043814635480E4601683148008807AF984621
:20588C001546ADF11C0DF8B13048006801421BD02F480068014204D12E4800680088014283
:2058AC0012D0284840F263430468009312A20192029603950023049305930693264B1A883E
:2058CC00264B186807A3A047CDF800803888494632462B460190012002F08AF807B0BDE83B
:2058EC00F083C04670726F6A6563745F7A65726F5F6264732E6300C0284342292043686122
:20590C007220636F6E666967206368616E67653A20737663283078253034782920706172EA
:20592C00616D4944282564292E2053656E64696E67206D736720746F206170702E00C04611
:20594C00CEC00000A0C0000088C00000400500003C0500004405000084050000A4C0000049
:20596C002DE9F8430746D7F80880D8F800007D68066C16F4F06F466426D1F00910D27009A1
:20598C0052D395F83C00AC6B401E844288BF041C3846214603F01CF8A86B001BA86308E05E
:2059AC00A96B384603F014F8014695F82D00A96318B9A86B002837D101E00020A86305F127
:2059CC00840004F0BBFC2FE0F00A0ED3D8F80000002144684160A96B04F00F04202988BFB9
:2059EC002021384602F0F4FF1AE04FF000094C4602E0A86B401EA863A86B88B138460121D9
:205A0C0002F0E6FFD8F80000446814F00F04C0F80490EED0296B686B491E2963401E686383
:205A2C00EC77384601F0AAFBB0090DD3AE6A5EB13846314603F004F8A862A86A314618B9DB
:205A4C003846091D02F0AAFABDE8F8832DE9F04130482F4908603048FEF74CFA02F080FF1D
:205A6C000020014603F09AFB00252C492F4C0860032004F1180141F80C5F401E8D60FAD1C3
:205A8C00241F062004F14C010A46401E22F80C5BFBD10820224F0880224A8F602249121D3E
:205AAC0022F00303CF1A6762E3612362E66904F12008944618460A4601E026F8025BB14204
:205ACC00FBD8B910E82700EB810121F8045C4FF6FC761F8006EA0C0300F1E807D21A676140
:205AEC0006EA0201EC39A0F8E810284600F0FAFFA061D8F80000606101F0B0FB02F0F0FC8F
:205B0C0002F060FE04F016FC2846BDE8F081C046CC130020118300002CBE000010020020EA
:205B2C007598000031240020483F002054120020042998B54CD1274804F066FB264C48B9DC
:205B4C00264800F11F010978490838BF206803D3406800E0C06820604168214A097811605D
:205B6C00416812680978914206D0876927B124A20CCA6FF0FF01B847022003F0F7FA1120D3
:205B8C0000F0ACF801222168164B087C1A7018B115480078012803D00E2000F09FF8216872
:205BAC00496812488F680FB9CF681FB10021C1610F4F07600F4A40F2FF7111600027876185
:205BCC000D4941610D4804F045FA192004F0AEFB98BDC046C0230020142400201C2300204E
:205BEC00D02108402624002029240020001004405100070600000460020000405D50000084
:205C0C0000000000000000022DE9F843044604F0E1FB81462D48021992F8ED10491ECFB245
:205C2C00002F82F8ED704BD12B4D05EB84052E78698836F07F0788461AD1F10911D24FF02D
:205C4C008054D4F8B801806901464046884704F5DC742068406B0146404688470228F8D14F
:205C6C0021E000EB8800D0F80011002088471AE04FF08054D4F8B801006A01464046884744
:205C8C00D4F8B801806A014640468847D4F8B801006B01464046884701210D4A0D48116022
:205CAC0001688908FCD306F03F003F2801D0FFF7ABFF687800F03F003F2801D0FFF7A4FF22
:205CCC00484604F083FBBDE8F883C046401100202820086028200840ACBC00002DE9F04132
:205CEC00064604F077FB2D4D8046A91991F8ED00421C002881F8ED204AD1294C04EB860459
:205D0C00277807F03F003F2801D0FFF7E7FF607800F03F003F2801D0FFF7E0FF668837F065
:205D2C007F001AD1F80911D24FF08054D4F8B801406901463046884704F5DC742068406BC0
:205D4C000146304688470128F8D121E005EB8605D5F80011012088471AE04FF08054D4F896
:205D6C00B801C069014630468847D4F8B801406A014630468847D4F8B801C06A0146304682
:205D8C0088470121074A0848116001688908FCD3404604F01BFBBDE8F081C046401100200E
:205DAC00ACBC000028200860282008402B4AF0B538CAADF11C0D02A938C10CCA4FF08056BD
:205DCC0081E80C0084684568D6F8D0112068C9688847216822488A6B10408863206840F295
:205DEC00F271416495F83C0095F83D202168C0100DEB8000806810434863684604F092FAF7
:205E0C001A4FDFF864E0D6F8D0112B7FDFF854C06A7FA87F496857F823705EF82260AA6920
:205E2C005CF820300D46206801993E433343A8470F490A1F106840F010001060086840F00E
:205E4C0001000860A07DFF2806D0E07DFF2803D0086840F44040086007B0F0BDB8BD0000F7
:205E6C000DF8FFFFA4BD00009CBD00008CBD0000301000402DE9F041DFF8B080044698F868
:205E8C0000001F4615460E46ADF1380D012804D0FEF72CFF4046012101704EB166603DB116
:205EAC00A56004F097FA224A117819B104F08EFA002038E0491CC9B2117004F087FA0125DD
:205ECC001FB9684603F0AAFF6F46386820607868E060387A2074F8686061386900B1A061E5
:205EEC000021782204F1200000F03CFF05A800212422082304F052FA04F138008DF82C50EE
:205F0C00002105AA04F046FA05A800212422082304F068FA04F1700006490B94002205ABB7
:205F2C0004F05CFA20460EB0BDE8F081CA1500202E240020A3A10000F8B504F0AFF804F0E0
:205F4C00B9F8044604F00C000C2845D0E0081ED203F0AAFA234E376805460120014603F0CC
:205F6C0041FD31686943884211D21F4C8220B0FBF7F0291A204604F025FA204604F03EFAF8
:205F8C000120FCF7F5FF204603F0EEFC25E0200922D21648610939BF016821F001010168E3
:205FAC0041F0010102460160D2F898004FF0805440F00300C2F89800D4F8B801806901464A
:205FCC0020208847D4F8B801094C806B2168804701202060206800E030BF04F065F801F057
:205FEC00A9F9F8BD78C000004C1100208C2108402C2009402DE9F0414568876816460C466E
:20600C0004F0E8F90346A86B3246214630B1184604F0DCF94FF0FF30BDE8F081AA6329633F
:20602C000024EC7718466C6304F0D0F904F0D2F91D4E8046307820B9022003F097F80120AD
:20604C003070404604F0C2F91849086840F4007008603968886B40F4FA608863687800286D
:20606C0018BF201C1ED1696805F1D40004F06EF9B8B9AC633968886B20F4FA60886304F0BB
:20608C00A9F90746307818B1022003F057F83470384604F09BF91022696B286BEA77401A32
:2060AC002863686BBDE8F0812F24002030100040F8B50D46EEB2290824BF27494D40274B4A
:2060CC00B400DFF89CC0195900EA05020CEA020200F4E02C85EA0107BCF5E02F00EA070741
:2060EC0021EA0001C7F3006742EA010201D1510E14D300F4E0210F4310D002F4E027B7F550
:20610C00A02707D0B7F5803704BF22F4003242F4A02203E022F4803242F4C0221A51114CE4
:20612C00C10D04D3C5F38052A4F1D0018A55000E10D304F04FF9290E03D201220021B24070
:20614C0002E00122B2401146236893431943216004F03CF9F8BDC046006000A0001008406B
:20616C00007F077FD02002402DE9F0410E46294990461C4606AF8C4672680878BB885178AA
:20618C003F881278002502EB012242F62321521A29D0521E052A18D9921F0CD0263A34D10A
:2061AC00072F30D8C7F10700984298BF83B2674407F1080121E0B84225DBC01B9842D8BF7D
:2061CC0083B22380DCF804000BE0F06803F03AFE80B2B84217DBC01B9842D8BF83B2238053
:2061EC00F06839180AE0082F0DD8C7F10800984298BF83B207EB0C010F31238040461A46F6
:20620C0000F0FEF803E0072501E025800A252846BDE8F0816C0F0020F8B504F0DBF8224CC7
:20622C000746A06910F4602F25D0A069400CC6B2700807D2B00803D2F00828BF022602E0E0
:20624C00012600E00026751D68B201F0A5FCA16906F111020120904081433846A16104F08A
:20626C00B5F804EB8600876847B1606810A20CCA2946B84702E0384604F0A8F8A06918B185
:20628C000A48002103F07CFDE07F80080BD367692FB1606808A20CCA6FF00101B847E07F97
:2062AC0000F0FD00E077F8BD1C230020A4220020000000000000000800000000000000800C
:2062CC002DE9F04114460F4604F084F81FFA80F81F480068007808B903F0F8FBE7B1386895
:2062EC004FF0FF3518B140280AD3810B08D17E681EB1310A04D0310E02D1B9680F2908D99C
:20630C003DB10CB1284620700820FFF77DFC002418E07968BA6803E04FF480700122014692
:20632C0002F0F4FE0B49012008600B4908684008FCD30A4800684168022088470CB1002183
:20634C0021700446404604F041F82046BDE8F081F8BF0000A802504208800240CC0100108D
:20636C00F0B520480127F84201D001F0F1FD204D204F214EBD4206D203CD0478A400345953
:20638C00401CA047F6E71D48002800D08047164D164FBD4202D210CDA047FAE7F0BD032598
:2063AC001BE0416808300A1C2A400BD11A1C2A40AB4305D0046804300C600431043BF9D1DC
:2063CC00131C05D0047801300C700131013BF9D1021C2A4001D0A84304300368002BE0D18D
:2063EC007047C046FFFFFFFF0000000000000000C8C4000028C5000088C4000059C50110E4
:20640C00002A4AD05FEA000C8B071CD1830722D1102A08D370B4103A78C978C0103AFBD2C8
:20642C0070BC103238D0042A2CD3082A05D30C2A24BF08C908C008C908C008C908C0920726
:20644C002AD0920F22E00B780370491C401C521E22D08B07F7D1C30714D18307D8D0121F0E
:20646C0012D308C903801B0C4380001D121FF8D20AE008C903701B0A43701B0A83701B0A92
:20648C00C370001D121FF4D2121D05D00B780370491C401C521EF9D1604670472DE9F84306
:2064AC00002A894607464CBF47F6FF75151C002F08BF002032D03888002808BF002403D0DF
:2064CC002A4600F0ADF90446281B26DD388828B1291B484612A201F0BFFF0419B868E0B17E
:2064EC00D7F804802E1BB8F1000F0DD0404603F0A9FC401DB04207DC291B484609A2434609
:20650C0001F0AAFF04192E1B122E06DBBB68291B484606A201F0A0FF04192046BDE8F8837E
:20652C003A2000C0222573222C2000C06C696E652025643A200070472DE9F8432020EFF378
:20654C00118780F31188214CA068012103F0E6FE4FF001094FF0000865692168A4F81C90EE
:20656C006A1A2168A4F81E80461B401A904227D387F3118840464519361A4846294603F00A
:20658C00C9FEB042F7D92021EFF3118781F31188E18B012903D14046294603F0BBFEB0F1F2
:2065AC00FF3F06D0A169801B814238BF081C411901E0A069291803F0A9FEA4F82090256048
:2065CC00A4F81C8087F31188BDE8F88378010020B0B50446A768ADF1280D5FBB0C2000F0E4
:2065EC0081FA071C1DD0684600212422082303F0F9FE002306976A466168ADF8103018485C
:20660C00059303F07FFE386070B90820ADF824000C25ADF8265009A802F018FD384602F040
:20662C00A9FE6FF0030018E0E06878602069B860A7600AE003F066FA0546386803F094F9DD
:20664C002069B860284603F0B3FB3868616803F0B9FE386803F0D2FE00200AB0B0BDC046BB
:20666C006DA000002DE9F843DFF87C900F4604464FF0FF31484603F069FEDFF870801D48AB
:20668C0000210AE0FF2A07D00368934202D958F822600EB1002421E0491C1FB117F821208D
:2066AC00FE2AEFD100202060012660600546A0600EE0FF290BD0636806FA01F048F82140C6
:2066CC0018430B4960601268204602F0F5FA6D1C27B107EB85021178FE29EAD1484603F0B8
:2066EC0031FE2046BDE8F88358230020C0210020007FC767F41F00202DE9F04180462148E7
:20670C0005782148001F046816460F46ADF1200D4CB106A8009042464FF6FF711B230120A9
:20672C00A047024600E0002205922AB300200090BDF81800FF240DF1120331460190404667
:20674C000294FCF729FD041C11D17089ADF81000780804D303F068F81B23054600E01D237B
