:20000000483F0020BD8C000001CA011001CA011001CA011001CA011001CA011001CA0110C8
:1C00200001CA011001CA011001CA011001CA011001CA011001CA01103FCA011082
:20003C001FB58DF80C002548016825480088E0B124480068014218D023480068014204D1F9
:20005C0022480068008801420FD0234840F24E43046800930DA201929DF80C001D4B0290FE
:20007C001A881B4B186804A3A047032003A9012208F05AFE00901FBD70726F6A6563745F4A
:20009C007A65726F5F6264732E6300C02843422920474150205374617465206368616E678B
:2000BC00653A2025642C2053656E64696E67206D736720746F206170702E00C018CA00002D
:2000DC005ECA0000400500003C0500004405000034CA0000840500002CCA000042F002025A
:0400FC0004F0C6B98D
:200100003C000000000000000000000034010000000000000000000001000000000000006D
:1C01200000000000000000000000000001000000000000000800000000000000BA
:20013C00340000000000000000000000680100000000000000000000010000000000000005
:14015C00010000000000000000000000080000000000000086
:2001700030000000000000000000000098010000040000000000000001000000FFFFFFFFA5
:10019000FF00000001000000080000000000000057
:2001A0002C0000000000000000000000C4010000040000000000000001000000FFFFFFFF4D
:0C01C000FFFFFFFF08000000000000002F
:2001CC0034050000E401000099A1011095A70110A5C2011009B2011045B80110000000000B
:0801EC00000000002E000000DD
:2001F400280000000000000000000000140200000000000000000000FFFFFFFF00000000B1
:080214000800000000000000DA
:20021C00300500003002000069C201106DC101101FC2011095BA011000000000000000008E
:04023C002C00000092
:20024000300500005402000075C20110A9B601109DBF011049B601100000000000000000DE
:040260002D0000006D
:200264002400000000000000000000008002000000000000000000000000000008000000CC
:040284000000000076
:20028800240000000000000000000000A40200000000000000000000000000000800000084
:0402A8000000000052
:2002AC00240000000000000000000000C8020000000000000100000000000000080000003B
:0402CC00000000002E
:2002D0000000000054160020040000000000000000000000200000007001000030000000BF
:2002F0001C0200005C1600200400000000000000000000000C0000003004000018000000E2
:20031000400200006416002004000000000000000000000024000000480400001800000065
:20033000000000006C16002004000000000000000000000010000000A00100002C0000002A
:20035000CC0100007416002004000000000000000000000020000000640200002400000068
:20037000FFFFFFFF7C160020040000000000000000000000280000008802000024000000E5
:20039000FFFFFFFF84160020040000000000000000000000580000003C01000034000000CA
:2003B000FFFFFFFF8C160020040000000000000000000000100000006004000018000000DF
:2003D000FFFFFFFF941600200400000000000000000000001C000000AC0200002400000055
:2003F000FFFFFFFF9C16002004000000000000000000000038000000F401000028000000C6
:20041000FFFFFFFFA416002004000000000000000000000054000000000100003C00000061
:1804300018000000000000000000000040040000080000000000000050
:1804480018000000000000000000000058040000080000000000000020
:18046000180000000000000000000000700400000800000000000000F0
:0804780002000000ECC90000C5
:0404800008F04AB87E
:040484000100000073
:0404880000008C0FD5
:04048C000000BC0FA1
:040490003200000036
:040494000100000063
:04049800E01500204B
:04049C00000200005A
:0404A0000000000058
:0404A40001CA011078
:0404A8000000000050
:0404AC00000000004C
:0404B0000800000040
:0404B40000007612BC
:0404B800C814002044
:0404BC00010000003B
:0404C000F81500200B
:0404C400080000002C
:0404C8000000000030
:0404CC00000000002C
:0404D0000000000028
:0404D4000000000024
:0404D8000000000020
:0404DC00010000001B
:0404E00030150020B3
:0404E400060000000E
:0404E800010000000F
:0404EC00F8130020E1
:0404F0000000000008
:0404F4000000000004
:0404F80000020000FE
:0404FC0000000000FC
:02050000704742
:020502002800CF
:020504000100F4
:020506002400CF
:020508002C00C5
:02050A002D00C2
:02050C002E00BF
:02050E000100EA
:0105100001E9
:0805140003000000B8C900005B
:08051C000000000000000000D7
:040524000000930D33
:040528000000AD0D15
:04052C0087C401106F
:04053000380500008A
:040534003805000086
:0405380000000000BF
:04053C0090610000CA
:0405400090610000C6
:0405440000000000B3
:04054800F815002082
:04054C0007A80000FC
:040550002000000087
:04055400F8C80000E3
:04055800E8C70000F0
:04055C000DC30110BA
:04056000B3A3000041
:04056400FBA40000F4
:0405680099C801101D
:04056C009BC8011017
:040570000000000087
:0405740088AD00004E
:04057800C4C60000F5
:04057C00DCC60000D9
:04058000ACC6000005
:020584000280F3
:020586000380F0
:02058800C0179A
:02058A0001006E
:01058C00016D
:040590000000000067
:040594000000000063
:04059800000000005F
:04059C00000000005B
:0405A00089AB000023
:0405A4007D93000043
:0405A80059A1000055
:0405AC00CD970000E7
:0405B0002F9900007F
:0405B400D19B0000D7
:0405B800BD79000009
:0405BC00BBA90000D7
:0405C000598100005D
:0405C40011C8011049
:0405C80021C8011035
:0405CC000800000023
:0405D0002400000003
:0405D400180000000B
:0405D80028000000F7
:0405DC0020000000FB
:0405E0003C000000DB
:0405E4000C00000007
:0405E80034000000DB
:2005EC002DE9F04FADF17C0D00F026FCA448A7490488A44809680668A348A54A006806EAFC
:20060C000007119706EA010712971768A14A1588A14A12681392A14A12681492A04A1094D4
:20062C001268159202EA00040A4017929D4A16941268189202EA00040A409C4919949A4847
:20064C001A9200681B9010391C910820ADF820000A24ADF822404FF0FF33099308A809F001
:20066C00A9F90028F1D100200F900824ADF830400923ADF832300CA809F09CF9DDF838C0A0
:20068C00CDF874C00028CDF83CC040F02081BDF834004FF00108102840F01181A1489DF8F2
:2006AC0036100078884240F00A81644620884FF6FF71814200F090802378913B70D01F3B20
:2006CC0040F0FD806078109A162840D020797E2824D07F2810D0131C5CD0119B002B59D07C
:2006EC00129B13B93888064254D040F2DA300090A6A3019320790FE0002A4BD0119B002BFC
:20070C0048D0129B13B93888064243D040F2D5300090B2A301932089314610E01599002A89
:20072C0038D0169B002B35D0179B13B93888014230D04FF474700090B7A30193207A029072
:20074C00DDF850C013982A46ABA3E04722E018999AB1199B8BB11A9B13B9388801420CD0CA
:20076C0040F2B7300090BEA301932079DDF850C0029013982A46A0A3E0476088082109F030
:20078C0097FA38B9404604F031FD66484FF00008C46094E0217904F1080009F0A9FE8EE0F1
:2007AC0060780E2840F08B80109C002C00F08780119C002C00F08380129C14B938880642C6
:2007CC007DD040F29A30C2A400900023DDF850C00194314602934EE0608800096FD351482B
:2007EC00C468002C6BD080784E49B4F802B0401C887094F804A0102009F0BAFC04F1080904
:20080C00041C13D0022115220AF0CAF8A4F808B084F80AA0C4F80C9009F0BAFCB54A2146CC
:20082C0008F0DEFC0446162C01D104E004243D48C068042C3CD1109C1899002C3FD0199C39
:20084C00002C3CD01A9C14B93888014237D0354840F20F42C0680092BEA401940079314B21
:20086C0002909878DDF86CC0039000220492144605942346069313985FA32A46E0471EE047
:20088C005ECA000018CA0000400500003C050000440500008405000034CA00002CCA0000F6
:2008AC0014CA00001CCA000030CA00002C0800204088002109F0FCF9204604F097FC0F9CAB
:2008CC002CB1B8F1000F02D01D9809F041FE154880680AF04FFA00287FF4B7AE11488068EF
:2008EC000AF044FA8046109B98F8080008F1090408F10901002800F04581401E00F0D58021
:20090C00401E56D0401E00F01482801E40F014821BB3119B0BB3129B33B9388806421CD03A
:20092C0002E0C046C0070020A378002B0CBFC4A0C6A04FF422710022B4A30091DDF86CC020
:20094C0001931146029013460392139804913146059329A306922A46E047B4F8009010206A
:20096C0009F006FC041C00F0E781012113220AF017F8A4F808900020A0720246E26009F0AF
:20098C0007FCB44A214608F02BFCD5E152656365766965642047415454204D657373616717
:2009AC00652E204F70636F64653A2030782530327800208841F210112246401A4AD0A0F2B3
:2009CC00FF6018B34AF61A01401A40F0B58120796188641D224602F045FEADE14D54552082
:2009EC0053697A65206368616E67653A20256420627974657300C04670726F6A6563745F44
:200A0C007A65726F5F6264732E6300C010795188521D01F0EDFD8FE1466C6F7720636F6E0D
:200A2C0074726F6C2076696F6C617465642E204F70636F6465206F66206F6666656E6469D9
:200A4C006E6720415454206D73673A2030782530327800C010795188521D03F0F7FD6BE180
:200A6C004F7574676F696E67205246204649464F2066756C6C2E2052652D736368656475A1
:200A8C006C65207472616E736D697373696F6E206F66206D73672077697468206F70636F26
:200AAC0064652030782530327800208841F60F01814240F041812146B4F80540201C1BD077
:200ACC00401E03D0401E19D18FA016E093A014E048434920436F6D6D616E6420436F6D70E3
:200AEC006C657465204576656E742072656365697665640091A9000095A01E900A79002AED
:200B0C0040F01A81E3B1119BD3B1129B13B93888064215D040F23E30B2A30090B8A2BCA198
:200B2C000193DDF86CC01E9B1398029200220391114604938C4B05922A4606913146E04765
:200B4C001CB9884809F0C4FBF6E086480AF00AF9F2E0C0465265747279696E67206D6573FA
:200B6C00736167652077697468206F70636F6465203078253032782E20417474656D70745F
:200B8C0020256400238841F210101B1A64D04AF619701B1A40F0D080A178A54A601D07F03F
:200BAC00F3F82479109B9CB1641E40F0C5801C1C00F0C280119C002C00F0BE80129C1CB9BE
:200BCC003888064200F0B88040F2713082A20FE0002B00F0B180119C002C00F0AD80129C03
:200BEC001CB93888064200F0A78040F267306BA28F4900906CA4019472A30293039204913E
:200C0C00002405942346069375E0C046426F6E644D67722052657175657374656420706142
:200C2C007373636F64652E205765206172652025732070617373636F64652025303664008C
:200C4C00446973706C6179696E6700C053656E64696E670083A90000A1781C9A601D07F07D
:200C6C0093F804F105092479002C65D1109CE4B1119CD4B1129C14B93888064215D06B494C
:200C8C0040F20B3048A400903FA342A2DDF86CC001940024029313980392234604912A469C
:200CAC00059431460693304BE047624899F800200069062108F01CFA109C002C3CD0119C53
:200CCC00002C39D0129C14B93888064234D099F80040002C0CBF52A052A040F21331009199
:200CEC0022A4019425A302930390002204921146059114460694DDF86CC013982A461A4B83
:200D0C003146E04718E0C046496E6469636174696F6E7320656E61626C6564004E6F746931
:200D2C006669636174696F6E7320656E61626C656400087801F07AFF0820ADF82800CDF858
:200D4C002C800524ADF82A400AA808F033FEBEE54E6F74692F496E642064697361626C654D
:200D6C006400C04684080020040A000053657474696E6720257320257300C046426F61726B
:200D8C00645F4C45443000C04C45442053657276696365004C45443000C046C04C617469A4
:200DAC007475646500C046C056616C7565204368616E6765206D73673A2025732025733A01
:200DCC00202573004C6F636174696F6E205365727669636500C046C04C6F6E676974756419
:200DEC006500C04643434344204368616E6765206D73673A2025732025733A20257300C046
:200E0C004261747465727920536572766963650042617474657279204C6576656C00C04601
:200E2C006C6F77006869676800C046C01C0800202C080020C00700202DE9F04F0820ADF154
:200E4C00740DADF830000126ADF832600CA808F0B1FD8A489DF8341001700E994160844947
:200E6C000C688449DFF810820F88A2460FF28C191A97381C1FD0414608681AEA000F1AD0AF
:200E8C00BE4800681AEA000F05D1BD48006800881AEA000F0FD0C54805684FF4B6775CA31F
:200EAC0000220097C0490193BE4F02920A8838684B462146A847714D00214435284609F057
:200ECC004DFF6E4801460F4685601C3107F1500006F056F845463946086129681B9100BB3F
:200EEC00C9481A9F0168D7B11B98014217D0A3480068014204D1A2480068008801420ED0E8
:200F0C00AA484FF4BD7752A30568009700220193A54FA44B029218683A884B46A84709F07B
:200F2C0019FF03A800212422082309F00FFFB748002541F288374FF47A7103AB0068099551
:200F4C002A46B1FBF0F081B207FB01F04B4FB049089007F1C40009F0F5FEB046AA4640F278
:200F6C0005300DF162028DF862803146ADF84CA002F030F940F20630022113AA02F02AF9E7
:200F8C004FF4427031463A46521C02F023F940F2073012213A467C3202F01CF91A983D46D7
:200FAC007C3500287DD01B9804427AD073480068044204D1724800680088044271D05146B6
:200FCC00202207F1A30006F05BFB764E7648774BD6F800B0078850461E682A5C401CC0B21B
:200FEC002B5C4119092B18BF082B01D11F2A47DB1218D0B22028F0DB47E0C04670726F6AE2
:20100C006563745F7A65726F5F6264732E6300C0496E697469616C697A696E672074686534
:20102C002075736572207461736B2C2068617264776172652C20424C4520737461636B20E3
:20104C00616E642073657276696365732E00C0464572726F7220696E697469616C697A6939
:20106C006E6720626F6172642070696E7300C04618CA00005ECA000040050000C007002051
:20108C006448491C521E05F049FE4FF4D470009053A501955F4D3A4621464B465846029589
:2010AC00B0470620A02108F005FA0720A02108F001FA0820A02108F0FDF90920A02108F0BB
:2010CC00F9F940461E2108F0F5F955468DF8638047468DF8648050468DF865000421129522
:2010EC0012AA8DF866704FF4816008F0C9F94FF4806041460DF1630208F0C2F940F20240BB
:20110C00414619AA08F0BCF940F2034041460DF1650208F0B5F940F2064041460DF1660260
:20112C0008F0AEF9032008F017FB042008F014FBB448B54A132107F045FFB449032008F02A
:20114C0031F8B34DB34A032105F1080007F03AFF1A98A2460FF2882850B31B981AEA000FF7
:20116C0026D0064800681AEA000F0BD10448006800881AEA000F1BD004E0C0463C05000063
:20118C004405000009480568BB2703260097064BCDF80480034902961A880868C1A321463F
:2011AC00A84705E034CA0000840500002CCA0000BB48B94D082604230778ADF83C602A7812
:2011CC00ADF83E30900010900FA808F0F3FB00280CBF11980020B149002888604FD01BE043
:2011EC004E616D6520696E20616476657274446174612061727261793A201B5B33336D2544
:20120C00731B5B306D00C04614CA000008CA00006BAB0000630800202E7846B14FF6FF7292
:20122C00001F002120F8042F761E8170FAD19B48B64A04210C3007F0C5FE1A98E8B11B98CB
:20124C001AEA000F19D0B54800681AEA000F05D1B348006800881AEA000F0ED0B1480668F5
:20126C00CF2304220093B049CDF80480AF4B02920A88186821468FA3B04788480770A44E0C
:20128C00A44A052106F1100007F09CFE1A98DDF86C900FF2342B0746E0B11AEA090F19D0D0
:2012AC009E4800681AEA000F05D19D48006800881AEA000F0ED09B480468DA23052200931F
:2012CC009949CDF80480994B02920A88186851465B46A04772484E490FF200282C304860B0
:2012EC00DFB11AEA090F18D08C4909681AEA010F05D18B49096809881AEA010F0DD0894985
:20130C00CA230C6800938849CDF80480874B02900A881868514663A3A04761485F49343004
:20132C004860DFB11AEA090F18D07C4909681AEA010F05D17A49096809881AEA010F0DD08F
:20134C007849E0230C6800937749CDF80480774B02900A881868514656A3A04750483C30CC
:20136C007060DFB11AEA090F18D06C4909681AEA010F05D16A49096809881AEA010F0DD047
:20138C006849E9270C680097684BCDF80480664E02901868328851465B46A0470DF14E008E
:2013AC000021142206F06CF9002001210DF14E0203F04CF9002001210DF14E0201F018F915
:2013CC00002004210DF14E0202F04CF9012004210DF14E0202F046F9A878002840D11BE01E
:2013EC005265676973746572656420736572766963652C20256420617474726962757465F9
:20140C007300C04628100020A0C9000017AB0000901400207CC8000021486E78EC781830C1
:20142C006862182008F0A4FE071C19D00421002209F0C6F9304608F00AFE38727C720020CB
:20144C00B87205F14806FE6005F158033B6105F120027A6108F09CFE2F4A394607F0C0FE95
:20146C000C2008F085FE041C0BD00121042209F097FA0B482430A06008F08AFE214608F066
:20148C006FFC0120102108F081F90220102108F07DF91DB0BDE8F08F180C0020AC1300203C
:2014AC00C00700206C65645F736572766963652E6300C046626174746572795F7365727603
:2014CC006963652E6300C0466C6F636174696F6E5F736572766963652E6300C052656769B7
:2014EC007374657265642063616C6C6261636B7320746F206170706C69636174696F6E2EB4
:20150C002053747275637420257000C034C90000FC12002044C9000023AB00003C0500005E
:20152C00440500002CCA00008405000034CA00002DE9F04F0120ADF15C0DADF81A0008276E
:20154C00ADF8187006A808F035FA00263546DE4C8DF854509DF81C006070A6700898E06111
:20156C004FF6FF70A082384608F002FE5FEA00080CD00121122209F013FA08F009FE15A9CD
:20158C000123DA4A0091414607F048FE9DF854000121207004F1A80008F090F804F1CC0029
:2015AC00022108F08BF804F1F000042108F086F8042031461022E07004F1480006F060F859
:2015CC0004F158003146102206F05AF82562267266720720E67204F148021021A0720220A7
:2015EC0008F086F804F158020320102108F080F8042004F12002014608F07AF819E0A07859
:20160C00B4F84050B4F84230B4F84420B4F8461006280ED1ADF84250ADF84430ADF84620EA
:20162C00CB48ADF8481009F0A5FA012010A905F0A7FF0A20ADF80A00ADF808704FF0FF3518
:20164C00039502A808F0B6F9002840F0E18130460C90ADF824700925ADF8265009A808F09E
:20166C00A9F9DDF82C900028CDF8309040F0D081BDF82800102840F0BF8160789DF82A10D1
:20168C00884240F0B9814D4628884FF6FF71814200F0AA812B78A23B00F08F812E3B40F01B
:2016AC00AB81A878B046002800F05C81801E00F03481401E012840F20981801E00F0B9809A
:2016CC00401E7FD0401E60D0083800F06781801E40F0698194F83E30A888052BADF83400C0
:2016EC004BD001208DF83E00994809F043FA94F83E00012820D004281ED003280DD0022899
:20170C000BD00C98C188ADF836100189ADF838104189ADF83A1080892BE0B4F84000B4F82E
:20172C004250ADF83600B4F84430ADF83850B4F84600ADF83A301CE0B4F84000E9888842BF
:20174C00D8BF081CADF836002989B4F842008842D8BF081CADF838006989B4F84400884239
:20176C00D8BF081CADF83A00B4F84610A889814200DC0146ADF83C1001E08DF83E60B14ABA
:20178C000DA8122108F069F80DE1AF4809F0F2F96878002840F00781E888E082288920834D
:2017AC00688960836A4809F061F8002840F0FB80A56A002D00F0F7802B68E08A218B628B39
:2017CC009847F0E0B5F804A00A2008F0D1FC5FEA00080AD00121152209F0E2F8A8F808A06F
:2017EC0008F0D6FC414608F0BBFAB9483146062205F046FFE68226836683A879607354487B
:20180C0009F0B8F9904809F0B5F94FF001084FF6FF706379A0824BB9A879082814BF04204D
:20182C000520A070404608F023FFBCE00320A070B9E06878002840D1A549281D02680A603F
:20184C00808888800623A3706889A082E889E082288A2083688A6083E878207394F83E0063
:20186C00012818BF022808D11F2007F08DFB4FF47A714143364807F043FD95F803B0B5F847
:20188C000AA0142008F074FC5FEA000800F08E800121142209F084F888F808B02D1DC8F898
:2018AC000C50A8F810A0042088F8120008F070FC804A414607F094FC78E0687831286BD1B1
:2018CC002671042023E0C046180C00206878002862D1A878618AA278032813D0207965790F
:2018EC0031B9012814BF6671267107E09FA90000054303D0724807F003FDA278072AE0D191
:20190C00062004E0062A06D0207910B90320A0704CE00220FBE70720F9E7687800283BD1CB
:20192C00EB78A078E179ABB9022818D0072816D0062802D16179012911D103280FD06048A2
:20194C0008F094FF58B9012008F092FE07E0C046E40C00205F4A404606F02AFE6870687834
:20196C00D0B920E06878B8B9564A0220102107F0D9FE554A0320102107F0D4FE5648ED1C5D
:20198C0029680160AB888380544A01252846A179A57006F00DFE48B1A77007E0A888464AFA
:2019AC00102107F041FFB8F1010F25D1606A18B3016809B3A07888471EE0687913281BD15D
:2019CC002889012808D1A07B022805D11E4809F0D1F806F0E3FF0FE0052007F0D5FA01460C
:2019EC00194807F08DFC07E06888C00B04D3374A0420014607F096FE0C9848B1ADF8107048
:201A0C000320ADF81200CDF8149004A807F0D2FF208A65792179420831D320F0010055EA43
:201A2C00010320822BD08DB92D49207A8DF84A00657A8DF84B500A6813AB1A608988998001
:201A4C0007E0C0461DAB0000080D002003208DF84A00A07AE57A194A8DF8520006218DF83F
:201A6C0053500DF14A0007F045F9616A30B1A77021B1086810B1096838468847208A810883
:201A8C0007D3184920F002002082304605F078FD208AC108FFF4CDAD20F00400A57B2082B5
:201AAC00681E3FF4ACAD401E7FF4C3AD06F076FFBFE5C04675A9000041AB000035AB0000C8
:201ACC00C00C0020600C0020700C0020380C0020500C00209F0C0020440C0020800C00201F
:201AEC004A0C0020560C00202DE9F84F8046DD480122A0F130010A60D7490F68002FFCD0B9
:201B0C00D74ED64AC02706F1040B1760DBF80010890804D23168090C41F0F00100E0722183
:201B2C00E34AE44D4FF0000982F85412A5F1D407C0F80090D6F808A03868C0F3046008F035
:201B4C00F7FE5246534600EB2270401C162805DA10F10A0FB8BF6FF0090000E01520E64920
:201B6C00E64F00F01F0040F4F8500880386880083ABFE348C0F8009042F04062E149A5F1E9
:201B8C003C04D00E970E80F0010000F00100086087F0010000F0010088602068C0F3836736
:201BAC00C0F38F215FEA9A4022D243F3072000280BD542424846490805D17F0806BF01278D
:201BCC00391C4FF6FF71521EF5D1002810DD4FF6FF72490041F001018A4207D27F0047F017
:201BEC0001070F2F92BF01210F27111C401EF0D141EA0741182007F0DFFC20682768C34CFB
:201C0C00C0F3870140F2FF324B4607F0030041EA0021274688B22C210090A7F1400006F0F1
:201C2C0005FFA5F110073868C0F30D011C2007F0C3FCB54957F8080C014000F07C40014302
:201C4C00142007F0B9FC57F80C1C01F47C000904090C0143102007F0AFFC57F8042CDBF826
:201C6C000010C2F30350C2F30343490812D231680E0510EB267003D41028A8BF0F2000E04E
:201C8C004846090413EB217303D4102BA8BF0F2300E04B4643EA001302F47F4002F0FF0108
:201CAC00B8F1220F40EA034041EA000124BF02F0804211430C2007F07FFCB8F1220F32BF51
:201CCC0001202868C0F30070B8F1220F4FEA400040F0200084F8090126BF2868C0F3407023
:201CEC0001208B4EB8F1200F40F0100084F8090138BF494606D33168C80C00F44070C1F31C
:201D0C0084510143282007F057FCB8F1200F26BF3068C0F301504846B8F1220F4FEA4000D2
:201D2C0040F0600084F80C0126BF2868C0F3C0604846B8F1220F4FEAC00040F0800084F8A9
:201D4C00010126BF2868C0F345504846B8F1200F4FEA800040F47C40A4F89C0138BF6D49C3
:201D6C000AD3306801038A15920501F47C1100F00F00114341EA0031082007F01DFC2E46CB
:201D8C004FF480002060A6F1D000816D40F20F226FF31F418A4213D901680068C1F30367D3
:201DAC00C0F3034007B17F1E072805D006280EBF0720801C00F00F003D4947EA00100870CC
:201DCC00CAF381477F1E02D07F1E28D023E03168880C20D24FF4804020604F48D0F8022048
:201DEC004B0AC1F3033703F0800322F08F02134347EA0302C0F80220D0F801300F0A67F3A9
:201E0C000303C0F80130026801F0E70722F0E70247EA020102E04FF0004120460160DBF853
:201E2C000000C0F3C0070FB94020A0624FF400703E4F206428684FF04008C0F3C14040F033
:201E4C00300084F8C800CAF38150A8B3401E0BD0401E28D0022127E09402224300600C40B9
:201E6C00AC3F005040100940012008F09DFA05460420294606F0AEFC042008F095FA8542E2
:201E8C00FAD12648056825F07F4007F0DBFD384614300068036807214FF06022280E98475A
:201EAC004FF4806020600321042006F093FC0AE0026008408C1300500420012106F08AFC61
:201ECC00174807F0BFFD203E30681649164B47F6180500F03F0084F8CB0F3A460D801868C2
:201EEC001068C168022088471248114EC0F8008001213160BDE8F88F6E6208400000094013
:201F0C0094042A4300002043FCFCFC0040A00C409813005000803F400A600840A83F00504A
:201F2C00BD37860070B00C402C200940A00100109404604200600C402DE9FE4FB84C0F46C7
:201F4C000646F80B80F04781B80880F0D480B54DDFF8D892DFF8E0B2DFF8E882DFF8F4A210
:201F6C002C68B80F67D2B0480678002E47D1380947D3AF4801264946067000240C70204681
:201F8C0003F08FFEAB4808F019FDAC492246584608F0E2FDAA48017801291CD141460B7856
:201FAC00CBB9A94E306880B108F0E2FB2B68A8493668A64D0A68C01A000B82182860B2EBD1
:201FCC00C61F28BF0C6007D20A60A4484FF0005108F08AFB2CE00670504640F609010180A8
:201FEC00417B01F0F00141F0010141734480017B01F0F00101734460974E306018E0390967
:20200C0014D2B80BC0F004819D48001D08F0B0FD061C08D0706830B17468F068B6F91C106D
:20202C0098A20CCAA04727F40057F1E00021017027F00807ECE0ECB1042008F0B5F9C8B1F6
:20204C0008F096FB864A29681060814226BF401A401E401A000BF060F06800F58D70F0606B
:20206C00F16840F6C410884203D340F2EE228A4200D9F0600024D6F818C02C60BCF1000F08
:20208C0010D050460D30007810F00F0F0AD1708C40F60901814205D17CA20CCA30466FF46E
:2020AC008071E0476F495846224608F055FD4546287850B10220ADF80000684607F028FF35
:2020CC002C70BDF808006849088049460120674A674B087010781C70401C1070192008F0B6
:2020EC00CDFB756925B16BA20CCA30462146A84727F000578CE004F10C0A504608F038FD01
:20210C00061C5FD007F06CF97368B2690025B561E3B1F37F42F002024FF00009904603F088
:20212C0007035B1E07D05B1E03D09B1E06D15BA002E05CA000E05DA090E800037268F068FA
:20214C00B6F91C104B4694464246E04708F0F6FD8046B4F91200401C6FF31F306082E068D7
:20216C001F30017801F07F010170504608F044FA404608F0DFFDF068B0F99410B4F91220FF
:20218C0091421FD13B49097801291BD090F896409CB904688CB1384909680968B1F1FF3FB7
:2021AC0010D0364909687030B4FBF1F108F0BEFDF068703008F0D6FD04E080F896502846EC
:2021CC0005F04AFE504608F0D3FC27F0020708B147F002071CE008F0B1FD014620460830B9
:2021EC0008F0C6FC0646B469084608F0A3FDA0080CD25EB17068B169A143B16130B175688F
:20220C00F068B6F91C1000232246A84727F480471FB11248394608F067FABDE8FE8FC046E9
:20222C003824002080240020A32400209F2400209D24002049790000EC230020C9A000004D
:20224C00A12400209C2400207C24002088240020782400204C24002000100440E822002057
:20226C0084240020915A0000B0230020A52400209E240020D01600208C24002008CA000039
:20228C00382400200000000020000000000000000000000200000000000000040000000090
:2022AC0000000010000000000000004000000000000000202DE9F04F09AFADF13C0D089016
:2022CC000A92388809911E46ADF81800101C08BF002000F08481002700F101094FF0FF3A39
:2022EC004FF0010BB8466CE1252940F063811078521C0A922D2818BFADF8068005D158467D
:20230C00551CADF8060010780A9530281CBF4246434605D10A9908785A465B46491C0A91F0
:20232C002A28CDF80080554616D1306804930A99CDF808A0C01C4B1C20F00300001D306036
:20234C0050F8044C0A93002C0878009418D5ADF806B06442009413E044460AE0610001EBC6
:20236C00C40140180A99A0F1300408780094491C0A91302801DB3A28F0DBCDF808A0049353
:20238C002E282BD10A9908782A2801F101010A9111D13068CDF80880C01C20F00300001D08
:2023AC00306050F8045C002D48BF454608782B46491C0A9111E0454643460AE0690001EBE5
:2023CC00C50140180A99A0F1300508782B46491C0A91302801DB3A28F0DB02930AB1224660
:2023EC0004926C2804D04C2818BFADF8048005D10A990878ADF804B0491C0A910BA9CDF894
:20240C000C800FAB07916428059300F08B80692800F08880BDF818C0752872D078286ED0E0
:20242C006F286AD0702850D063283DD073281ED009980A990128A1F101010A9115D96B49A8
:20244C000C68B5F1FF3F03D0A84288BF6D1C00D8099D029508A80AA932466B46A047C71923
:20246C000A99039801F1010974E040462AE030680A99C01C20F00300001D306050F8040C03
:20248C00BCF1000F01F10109014608B955A00146079108F08BF90390B5F1FF3F5BD0A84294
:2024AC00C4BF281C039056E03068C01C20F00300001D306010F8040C5D468DF82C000A993D
:2024CC000395584601F1010945E0082035680490E81C20F00300001D306050F8041C0822EA
:2024EC0010230FA805F010FB401E0790402101700A99079801F1010929E0082302E0102398
:20250C0000E00A230A99306801F10109C01C20F00300001D306050F8041CAA42BCBF2A1CBA
:20252C00049210E00A99306801F10109C01C20F00300001D306050F8041CAA42BCBF2A1C21
:20254C0004926FF009030FA805F0DEFA0790059D281A0390009C241ABDF8065000945DB94D
:20256C0006E008A8202109AA07F0A8FC009C7F1C641E0094F5D503980546401E039075B90E
:20258C00BDF80600E8B10098401E009019D408A8202109AA07F092FC00987F1CF4E7079892
:2025AC00411C0791017809AA08A807F087FC03987F1CE1E708A809AA07F080FC7F1C09F15B
:2025CC0001094A460A9812F8011C401C00290A907FF48AAE089808B14146017038460FB034
:2025EC00BDE8F08F286E756C6C2900C040CA00002DE9F04F0546BB48BC4EDFF8F4B2DFF8D4
:20260C00F4A2DFF8F492DFF8F4820F46002DADF12C0D0488089240F0BE80BE488168B24D93
:20262C00099129680791FCB1306801421CD058460068014204D1504600680088014213D08D
:20264C00AF4840F209130568009368A201926EA302930397002204920592434606921A883A
:20266C004B4618685CA3A847022F71DA002F6FD0A84D08993A46681C04F050FB002C2846F2
:20268C000799478030D0306801422DD058460068014204D1504600680088014224D0099D6E
:2026AC00974B40464E460288AF781C6830680FF2281C002F08BF0FF2601E05D0012F0CBFBB
:2026CC000FF2681E0FF27C1E4FF48E7362A700932E46019733880293CDF80CE00025049521
:2026EC00059563460695A047099C271C70D0854DDFF82082287800244FF6FF7AA04267DDEE
:20270C00A0003E18385A82451ED0B078E0B108F10C000421C2687E4B934204D0491E00F199
:20272C001000F7D110E08146B078410805D3308801214A4604F06EFCB078800804D33088AE
:20274C0002214A4604F066FC2878641CE4B2D5E76D4832680168002C3AD0114238D058460B
:20276C000068014204D150460068008801422FD0634840F225160468009642A501950297D5
:20278C000123039300220493464605924D460692328828681AE05C480168CCB130680142C3
:2027AC0016D058460068014204D150460068008801420DD0554840F20D1740A60468009787
:2027CC00434601964F4602951A88386802A3A0470BB0BDE8F08FC046626174746572795F94
:2027EC00736572766963652E6300C046536574506172616D65746572203A202573206C6575
:20280C006E3A20256400C046426174746572795F4C6576656C00C0464E6F74692F696E6419
:20282C002064697361626C656400C0464E6F74696669636174696F6E20656E61626C65645C
:20284C0000C046C0496E6469636174696F6E20656E61626C656400C05472616E736D6974A7
:20286C0074696E67206E6F74692F696E642D20636F6E6E48616E646C652025642C20257382
:20288C0000C046C04C656E677468206F75747369646520626F756E64733A204C656E3A2069
:2028AC002564204D696E4C656E3A202564204D61784C656E3A2025642E00C0465365745045
:2028CC006172616D657465723A20506172616D6574657220232564206E6F742076616C6997
:2028EC00642E00C05ECA000018CA0000400500003C0500004405000034CA0000840500001A
:20290C0030CA0000180C002014CA00002CCA0000AD130020AC1300202DE9F04F09AFADF12F
:20292C003C0D08900B9397F804B00A923D880991084605F029FFB349DFF8D0A2DFF8D092E5
:20294C00DFF8D082794B00240646FF2084A2002E0D900F88B448B3490C963BD0761E1FD03F
:20296C00A9480168D7B150460068014216D048460068014204D140460068008801420DD09E
:20298C00A74840F2ED176FA605680097A34B0196A14F02941A88386865A3A8470A20C1E0DE
:2029AC00861C002F079009680E9639D050460068014235D048460068014204D14046006843
:2029CC00008801422CD018464FF4F4730668009374A316E00E90096807900FB350460068A8
:2029EC0001421DD048460068014204D1404600680088014214D018464FF4ED7306680093EE
:202A0C006BA301920293089803900B9A04920595824BCDF818B01A887F4B186844A3B04748
:202A2C00042D4DDA0B9E65A27619042E29DC042E19DABBF1180F18BFBBF1120F13D15046A6
:202A4C00714900680968002F38D0014236D048460068014204D140460068008801422DD093
:202A6C0040F201271FE009980A990B9AC068281804F054F9042E42DB0C980D900E9F3E8064
:202A8C003DE061480168CFB150460068014215D048460068014204D140460068008801428E
:202AAC000CD04FF4FC775E48066800975B4B0192594F02941A8838681DA3B0470D241EE02E
:202ACC0051480168D7B150460068014216D048460068014204D140460068008801420DD095
:202AEC004F4840F2F3173EA3066800974B4F0193494B02943A8818680DA3B04707240D9800
:202B0C00FF280ED00798406858B107684FB10B980C9A0A9B2D18A8B2009008984CF22901C0
:202B2C00B84720460FB0BDE8F08FC04630CA00006C6F636174696F6E5F7365727669636598
:202B4C002E6300C041747472696275746520776173206E6F7420666F756E642E00C046C058
:202B6C005772697465417474724342203A20257320636F6E6E48616E646C652825642920F8
:202B8C006C656E28256429206F666673657428256429206D6574686F64283078253032781F
:202BAC002900C0464C6F6E67697475646500C0464C6174697475646500C046C0496E766199
:202BCC006C69642076616C7565206C656E677468207761732072656365697665642E00C011
:202BEC00416E20696E76616C6964206F666673657420776173207265717565737465642EE1
:202C0C0000C046C05ECA000014CA0000400500003C0500004405000034CA00008405000086
:202C2C002CCA000018CA0000FC1200202DE9F04FAD49AE4EAE4DAF4CDFF8BCB2DFF8BCA2CB
:202C4C00DFF8BC92DFF8BC820F88401EADF1240D00F09F80401E00F08480801E61D0401EDC
:202C6C004DD0401E2ED0401E17D0401E40F0D7803168002F00F0D3802868014200F0CF8088
:202C8C002068014205D15A4610680088014200F0C6804FF43A7068A774E03168002F00F066
:202CAC00BE802868014200F0BA802068014205D15A4610680088014200F0B18040F2D62000
:202CCC005FA75FE040F2153004A902F031FD04A805F0BEFC3168002F00F0A1802A68114246
:202CEC0000F09D802268114205D15A4612681288114200F0948040F2D12758A684E03168D8
:202D0C00002F2AD02868014227D02068014204D15A461068008801421FD040F2E12059A70F
:202D2C000FE03168CFB12868014216D02068014204D15A461068008801420ED040F2DA2039
:202D4C0056A74246146800260090534601974D46029618682A8833A3A0476B4807F0B8FA09
:202D6C005DE03168002F5AD02868014257D02068014204D15A461068008801424FD040F24A
:202D8C00C7204BA74246146800900197002602963FE04FF4417006A902F0CAFC9DF819300C
:202DAC008DF8113000218DF814109DF81A208DF813109DF818008DF812209DF81D308DF835
:202DCC0010009DF81C208DF8173004A98DF816209DF81B304D4A8DF81530086810604B68FE
:202DEC00536006A805F034FC3168C7B12A68114215D02268114204D15A46126812881142AD
:202E0C000DD040F2C2272DA64246146800970196029053464D4618682A8802A3A04709B074
:202E2C00BDE8F08F70726F6A6563745F7A65726F5F6264732E6300C04572726F7200C04653
:202E4C00436F6E6E656374656420616E64206164766572746973696E6700C046436F6E6E2C
:202E6C0065637465642E205065657220616464726573733A201B5B33326D25731B5B306D14
:202E8C0000C046C0436F6E6E656374696F6E2074696D6564206F757400C046C0446973635C
:202EAC006F6E6E6563746564202F2049646C65004164766572746973696E67004741502051
:202ECC00697320737461727465642E204F757220616464726573733A201B5B33326D25732F
:202EEC001B5B306D00C046C05ECA000018CA0000400500003C0500004405000034CA000016
:202F0C00840500002CCA000084080020930F00202DE9F04F09AFADF13C0D07900A930992F5
:202F2C00089138793F880B90084606F0B1F90546DFF874A2DFF87492DFF87482DFF87CB204
:202F4C00A148002D06880C9540F0AB809F48FF25002401680D9516B35046006801421ED093
:202F6C0048460068014204D1404600680088014215D097484FF4CF73056800935EA20192A2
:202F8C006EA30293079803900A98049005970B98894B06901A88874B186853A3A847002F66
:202FAC004BD10A9D67A2ED19022D27DAC5B90B98182818BF122813D150465946006809689F
:202FCC00002E38D0014236D048460068014204D140460068008801422DD040F2B7161FE0A4
:202FEC00089809990A9AC068381803F097FE002D42D00C980D90734E35803DE058460168C5
:20300C00CEB150460068014215D048460068014204D140460068008801420CD04FF4D776CC
:20302C00674805680096644B0192624E02941A8830682DA3A8470D241EE059460968D6B18B
:20304C0050460068014216D048460068014204D140460068008801420DD0594840F2A91607
:20306C0041A305680096544E0193524B0294328818681DA3A84707240D98FF280FD051489C
:20308C00801C006858B106684EB10A980C9A099B3F18B8B20090079841F21011B04720461D
:2030AC001FE059460968DEB150460068014217D048460068014204D1404600680088014277
:2030CC000ED03F48046840F2A31730A600250097394B0196374F02951A88386802A3A0478F
:2030EC000A200FB0BDE8F08F6C65645F736572766963652E6300C046577269746541747467
:20310C00724342203A20257320636F6E6E48616E646C6528256429206C656E28256429204D
:20312C006F666673657428256429206D6574686F64283078253032782900C0464C4544307E
:20314C0000C046C0496E76616C69642076616C7565206C656E677468207761732072656332
:20316C0065697665642E00C0416E20696E76616C6964206F66667365742077617320726589
:20318C00717565737465642E00C046C041747472696275746520776173206E6F7420666FAF
:2031AC00756E642E00C046C0400500003C0500004405000034CA00008405000014CA000094
:2031CC002CCA0000921400205ECA000018CA000030CA0000F8B5A0F2013517460E46022DCE
:2031EC0040F214818A4A8B498B4B2D1F0F2D04D9143D4AD0AD1E1CD011E0DFE815F0C30077
:20320C00BC00F400E400B300AB000701A2009A00100010009200880079006F006300282897
:20322C0080F2F480022E40F0F180398806F042F9F8BD012E40F0EA8015462879012800F046
:20324C00E58051793878507181B9002800F0DE809078012800F0A980042800F0A680062858
:20326C0000F0A380052800F0A080F8BD3878002840F0CC809078032800F0A280072800F085
:20328C009F80052800F09C80F8BD012E40F0BE803878012840F0BA80154605F1F00007F0FD
:2032AC00E5FA002840F0B2802C46002004F13E0104F066F9002840F0A98004F1CC0007F047
:2032CC0059FCF8BD022E40F0A18038880A28C0F29D80B0F5486F00F3998015E0022E40F0D9
:2032EC0095803888B0F5FA7F80F290800880F8BD022E40F08B8038880628C0F28780B0F559
:20330C00486F00F383801946891C0D4638E0022E7CD13888062879DBB0F5486F76DC1946B9
:20332C00F3E7012E72D1387806286FDA891F0D460EE0012E6AD13878042867DA15460B3503
:20334C0006E0012E62D1387808285FDA15460A352870F8BD012E59D13878042856DA154659
:20336C00093506E0012E51D1387804284EDC154608352946DBE7022E48D138881546123552
:20338C002946B3E7012E41D11546687901283DD011793878107161B9002837D09078012830
:2033AC0003D0042818BF052830D1012007F060F9F8BD387850BB9078022818BF052825D1F0
:2033CC0007F02CFAF8BD154605F1870400211F22204604F055F939463246204603F09EFC3F
:2033EC000020EE710EE0154605F1680400211F22204604F045F939463246204603F08EFCC3
:20340C000120AE713146224605F0D2F8F8BDC046180C00205C0C0020580C00202DE9F04F62
:20342C00804609AF0846ADF1340D0A9397F808B00992B98808903F880B9105F0A5F906463B
:20344C007E497D48DFF8FC91DFF8FCA1834ADFF810C200240FF2681E002E058848880988BF
:20346C00079538D0761E1FD075480168D5B148460068014216D050460068014204D173487D
:20348C000068008801420DD0734840F2A11745A6056800976F4B01966D4F02941A88386897
:2034AC003BA3A8470A206FE005461046079E0168002E37D048460068014233D0504600689C
:2034CC00014204D161480068008801422AD04FF4CE734AA214E00D461046079E01680EB316
:2034EC004846006801421DD050460068014204D1564800680088014214D040F2911342A215
:20350C00604606680093CDF804E00292CDF80C800497CDF814B04F4B06941A884C4B186859
:20352C001BA3B047BD420EDB0B98E91B8142D4BF8AB2021C0A9802800898C06839180998AD
:20354C0003F0ECFB1FE03E48079F0168D7B148460068014216D050460068014204D13B48B1
:20356C000068008801420DD03B4840F2A71729A605680097374B0196354F02941A88386874
:20358C0003A3A847072420460DB0BDE8F08FC0466C6F636174696F6E5F7365727669636569
:2035AC002E6300C041747472696275746520776173206E6F7420666F756E642E00C046C0EE
:2035CC0052656164417474724342203A20257320636F6E6E48616E646C653A202564206FA5
:2035EC0066667365743A202564206D6574686F643A2030782530327800C046C04C6F6E67CC
:20360C00697475646500C0464C6174697475646500C046C0416E20696E76616C6964206F36
:20362C00666673657420776173207265717565737465642E00C046C05ECA0000FC120020BF
:20364C0014CA0000400500003C0500004405000034CA0000840500002CCA000018CA000052
:20366C0030CA00002DE9F04F05460E467C48DFF8FCB1DFF8FCA1DFF8FC91DFF8FC817F4914
:20368C000FF2701CADF1240D2F1C008808927D4C079039D07F1E20D07248079F0168002F67
:2036AC0000F0878070480068014200F0828058460068014204D1504600680088014278D083
:2036CC0071484FF48C7741A604680097434601964F4602951A88386863E00968A41C0028CB
:2036EC0004F10A0735D060480068014231D058460068014204D1504600680088014228D080
:20370C004FF48A7342A213E0096804F1080700B35548006801421CD058460068014204D10C
:20372C00504600680088014213D04FF486733BA2534805680093CDF804C002920396002344
:20374C0004930593069343461A884B4618681AA3A847042E01DC042E26DA434D414C0798B0
:20376C002A682168071C24D0114222D058460068014204D1504600680088014219D040486E
:20378C004FF492770468009727A5019502960423039300220493474605924D4606923A884D
:2037AC00286805A3A04704E00898006838600426268009B0BDE8F08F6C6F636174696F6E54
:2037CC005F736572766963652E6300C0536574506172616D657465723A20506172616D65BF
:2037EC0074657220232564206E6F742076616C69642E00C0536574506172616D657465724A
:20380C00203A202573206C656E3A20256400C0464C6F6E67697475646500C0464C61746907
:20382C007475646500C046C04C656E677468206F75747369646520626F756E64733A204C34
:20384C00656E3A202564204D696E4C656E3A202564204D61784C656E3A2025642E00C046E4
:20386C005ECA000014CA0000400500003C0500004405000034CA00008405000018CA0000FE
:20388C0030CA0000FC1200202CCA00002DE9F04F0128ADF1140D40F0F280DFF81492D9F8D1
:2038AC00DC00012840F0E9800220C9F8DC0007F039FA0290012005F091F920B10121064604
:2038CC00C9F8DC10D5E007F029FA03906E484FF00008C0F80080012006F066FD012818BF1E
:2038EC00CDF8008004D1404604F066FD0120009066486E4CC0F800801934D4F8FF0F11201C
:20390C0007F092F800280CBF46460126102007F08BF808B146F002060F2007F085F808B177
:20392C0046F004060B2007F07FF830B1584800685849006B0246088890470A2007F074F871
:20394C000028404618BF01204FF0805B0BF5DC7528B128685049006B0246088890474F4897
:20396C000127076028688069014646F0200088474B48076007F052F800F0010101914008C0
:20398C0015D2484806F0DBFF8246BAF1040FF8D0BAF1010F06D1DBF8D801406802464148CF
:2039AC00032190474049086820F003000860404600F084F92868D4F8FF1F806B80470198D4
:2039CC0001280ED0BAF1010F06D1DBF8D801406802463448394690473349086840F00300B5
:2039EC0008602A480760286840690146304688470B2007F019F828B128682649C06A024638
:203A0C00088890470A2007F00FF828B128682249C06A024608889047204807600322C9F8A9
:203A2C00DC201F4BC3F800802868406B0146304688470128F8D1042005F0D0F8124807607E
:203A4C001A48D4F8FF1F01688909FCD30098012802D1384604F0B0FC06F0DAFF082005F0A6
:203A6C00BDF806460398C9F8DC7007F053F904F011FB029807F04AF902E0042600E0012667
:203A8C00304605B0BDE8F08F0C40094000022243B801001042C600003EC60000282008604A
:203AAC0080010443004003402422084014100940581100202DE9F04F09AFADF13C0D08909F
:203ACC000B930A920991B8883E880C90084605F0BDFC6F49DFF8C8B1DFF8C8A1DFF8C891F0
:203AEC0000280D88DFF8C48107955CD16A4C69482168008800240D900DB3684800680142C4
:203B0C001DD058460068014204D1504600680088014214D066484FF4C1730568009339A2E1
:203B2C00019247A30293089803900496387A434605904F4606941A8838682DA3A8470D98F5
:203B4C00B0420EDB0C99801B8842D4BF82B20A1C0B9802800998C06831180A9803F0DEF8E5
:203B6C001FE05448079F0168D7B14C480068014216D058460068014204D15046006800883E
:203B8C0001420DD04C4840F28D1731A605680097434601964F4602941A88386814A3A84781
:203BAC000724204620E0434801682F1C1BD03B480068014217D058460068014204D1504675
:203BCC000068008801420ED03B48046840F2871728A600250097434601964F4602951A8891
:203BEC00386803A3A0470A200FB0BDE8F08FC046626174746572795F736572766963652E00
:203C0C006300C04652656164417474724342203A20257320636F6E6E48616E646C653A200D
:203C2C002564206F66667365743A202564206D6574686F643A2030782530327800C046C0FD
:203C4C00426174746572795F4C6576656C00C046416E20696E76616C6964206F6666736537
:203C6C007420776173207265717565737465642E00C046C0417474726962757465207761C7
:203C8C0073206E6F7420666F756E642E00C046C05ECA0000AE13002018CA000040050000D4
:203CAC003C0500004405000034CA00008405000030CA000014CA00002CCA00002DE9F84FBC
:203CCC00DFF8E8B10746ABF13500DFF8D4910068800880F0D68006F007F90646774808301F
:203CEC00D0F8008000254FEA28725FEA985002F101020AD2C6F13E0016F10A0F4FEAE00047
:203D0C00D8BF08208242B8BF021C624BD3F87C01C0F3046006F00CFE04461868C0F30440B2
:203D2C0006F006FE12198246162A05DA12F10A0FB8BF6FF0090200E01522574B574802F024
:203D4C001F0141F4F8511980006810F0030F18BF0125C00828BF45F002050FB145F00405C0
:203D6C00494691F90700301A052804DA8879A84208BF888865D0DFF82CE10F2EA6F10F0CF8
:203D8C0025DB0CEB0610A0F1F00C4FEA2C27072F88BF07273C46062C88BF06245EF82400A7
:203DAC00042303EB84037446E3581B1A03F0FF04E80824BFC3F307200444A80824BFC3F3FA
:203DCC0007400444680828BF04EB136401E0002427465EF827E0E8080EF0FF0324BFCEF328
:203DEC0007200344A80824BFCEF307400344680828BF03EB1E63A4B2ACEB0727BAEB0200DF
:203E0C0004FB07F404F1800403EB1423D8BF0120342208F0FF0742437A43B2FBF3F04FF6DB
:203E2C00FF72824238BF101C802E80B2888005DA16F1800FB8BF6FF07F0600E07F26CE71A2
:203E4C008D71194A12681F280A604FF0000208D340F2FF11814206D24008521C8142FBD38A
:203E6C0001E01F208880124F0F38000942EAC00247EA0200CBF8FB0F0026CBF8FF6FBDE873
:203E8C00F88F0D4F0B4E494608203760891D0870BDE8F88F3C1100506E62084024220840FF
:203EAC00702400209C130050082009403500094000E7A48030100940FDFDA400AC3F0050E7
:203ECC002DE9F04F09AFADF13C0D08900B930A920991B8883E880C90084605F0D9F96C490A
:203EEC00DFF8BCB1DFF8BCA1DFF8BC9100280D88DFF8B88107955CD1674C66482168008812
:203F0C0000240D900DB36548006801421DD058460068014204D1504600680088014214D004
:203F2C0063484FF4B0730568009338A2019246A30293089803900496387A434605904F4647
:203F4C0006941A8838682DA3A8470D98B0420EDB0C99801B8842D4BF82B20A1C0B9802801E
:203F6C000998C06831180A9802F0D8FE1FE05148079F0168D7B149480068014216D05846CA
:203F8C000068014204D150460068008801420DD0494840F26B172EA60568009743460196B2
:203FAC004F4602941A88386814A3A8470724204620E0404801682F1C1BD0384800680142FF
:203FCC0017D058460068014204D150460068008801420ED03848046840F2651725A600259F
:203FEC000097434601964F4602951A88386803A3A0470A200FB0BDE8F08FC0466C65645F5C
:20400C00736572766963652E6300C04652656164417474724342203A20257320636F6E6E90
:20402C0048616E646C653A202564206F66667365743A202564206D6574686F643A20307818
:20404C002530327800C046C04C45443000C046C0416E20696E76616C6964206F66667365DB
:20406C007420776173207265717565737465642E00C046C0417474726962757465207761C3
:20408C0073206E6F7420666F756E642E00C046C05ECA00009214002018CA000040050000EB
:2040AC003C0500004405000034CA00008405000030CA000014CA00002CCA00002DE9F041CE
:2040CC001C4615468C4208BF854282BF00230022E5E0002C08BF002D0AD100290EBF002857
:2040EC006FF000006FF0000100F0E1F8BDE8F0815FF000085FF0000E002C08BF8D429CBF45
:20410C002C1C0025070C47EA01470E0CB44208BFBD429EBF5FEA044444EA15445FEA0545BC
:20412C00070A47EA01670E0AB44208BFBD429EBF5FEA042444EA15645FEA0525470847EA8D
:20414C00C1774E08B44208BFBD4200F29380870847EA81778E08B44208BFBD427CD8C708D7
:20416C0047EA4177CE08B44208BFBD4266D8070947EA01770E09B44208BFBD4250D8470976
:20418C0047EAC1674E09B44208BFBD423AD8870947EA81678E09B44208BFBD4224D8C709CD
:2041AC0047EA4167CE09B44208BFBD420DD8E60146EA5566EF01B14208BFB84201D3C01B7D
:2041CC00B14158EB08085EEB0E0EA60146EA95664FEA8517B14208BFB84201D3C01BB1412D
:2041EC0058EB08084EEB0E0E660146EAD5666F01B14208BFB84201D3C01BB14158EB080821
:20420C004EEB0E0E260146EA15762F01B14208BFB84201D3C01BB14158EB08085EEB0E0E1E
:20422C00E60046EA5576EF00B14208BFB84201D3C01BB14158EB08084EEB0E0EA60046EACF
:20424C009576AF00B14208BFB84201D3C01BB14158EB08084EEB0E0E660046EAD5766F004B
:20426C00B14208BFB84201D3C01BB14158EB08085EEB0E0EA14208BFA84201D3401BA14180
:20428C0058EB08085EEB0E0EA34208BFAA423EBF2D0A45EA0465240A89D3734642461E46C7
:2042AC0017460B46024631463846BDE8F08170472DE9F843814606F0A5FB002100B9012190
:2042CC006B4E30680028FCD06C4D01242D1DEF6A346009B106F09CFBDFF89881C7F3072060
:2042EC0008F1BC01086006F08DFB002100B9214630680028FCD02F68346009B106F088FBEB
:20430C00C7F38440C8F8C00006F07CFB0146002001B92046014630680028FCD0ED693460E2
:20432C0009B106F075FBC5F38120C8F8D000B9F5C061C8F8B81000F0968098F8D80068B982
:20434C00C8F8D410D8F8C000C8F8C800D8F8BC70C8F8C470D8F8D060C8F8CC60D8F8D41005
:20436C00D8F8BC60002954BF02206FF00100454605F1C8031A6801EB41014018411000EBF7
:20438C00917002EBA0021A60D5F8C810C5F8C46000291CDD1E293DDDD5F8CC0030B934291F
:2043AC00B4BF15391E21C5F8C81025E02A29BABFD5F8C8000B381E20C5F8C800D5F8C4005F
:2043CC003F28B4BF401C3F20C5F8C4001FE0D5F8CC00032812D011F10B0FC6BFD5F8C800E0
:2043EC000B30201CC5F8C800D5F8C4000028CCBF401E0020C5F8C400032009E011F1150F40
:20440C00C6BFD5F8C8001530201CC5F8C8000020C5F8CC00B5F8C400174E30214FF47F429C
:20442C0008230090304604F001FB009404214FF400321123304604F0F9FAB5F8C8000421F6
:20444C004FF4F80212230090304604F0EFFAB5F8CC0020214FF440620A230090304604F035
:20446C00E5FABDE8F883002088F8D800BDE8F88300800C405811002000A00C4000A00C406C
:20448C002DE9FC416F4C204606F072FB15460E46009006F053FC05F001078046B6F1FF3F0D
:2044AC000DD1606820B9B4F91200401C06B202E06068B0F91C6064490020C91C087030462F
:2044CC0005F07AFC0326002800F0A4806168814270D0009FDFF848C1B84231D03FB1009931
:2044EC000A68904209D0096800290091F7D1832E44D0404606F01EFC40E0604605F0E8FEA4
:20450C0000990868AA0803D202680B4601461A6000220A60009078B10C340146C87F40F040
:20452C000400C877684606F067F80146204605F0ABF800980028F0D1404606F0FBFB1CE0F5
:20454C00604605F0C5FEA8083ABF2068006800202060404606F0EEFB0C340099C87F40F003
:20456C000400C877684606F047F80146204605F08BF8009808B1A808EFD2832629482C4A92
:20458C00007890B928480078012846D0274806F015FA0221104606F0A7F826480078012896
:2045AC003BD0254806F00AFA37E01046022106F09BF832E0A90803D3216800910026266005
:2045CC00C27F0121B9401143C17706F0A7FB0646002F14BF19481A4805F09AFC404606F037
:2045EC00A9FBA80811D3009878B10C340146C87F40F00400C877684605F0FEFF0146204628
:20460C0005F042F800980028F0D1304606F082FB832602E0404606F08DFB3046BDE8FC81CE
:20462C00502300209E2400209D240020451F0000E82200209F2400205964000001000204E3
:20464C000100010438240020B023002003462DE9F04F6448654DDFF898B1DFF898A1DFF8D6
:20466C009891DFF898810F46002BADF1240D068807924ED15C480168F6B1286801421BD00E
:20468C0058460068014204D1504600680088014212D05B48ED230468009331A2019237A353
:2046AC0002930397002204920592434606921A884B46186826A3A047022F00DA0FBB51487E
:2046CC002A680168002E40D011423ED058460068014204D1504600680088014235D04848B8
:2046EC00FD260468009627A5019502970123039300220493464605924D4606923288286883
:20470C0021E0414C07993A46204602F007FB67801BE03C480168C6B12868014215D05846E9
:20472C000068014204D150460068008801420CD03648F12721A604680097454601964F4631
:20474C0002932A88386802A3A04709B0BDE8F08F6C65645F736572766963652E6300C046E1
:20476C00536574506172616D65746572203A202573206C656E3A20256400C0464C45443001
:20478C0000C046C04C656E677468206F75747369646520626F756E64733A204C656E3A204A
:2047AC002564204D696E4C656E3A202564204D61784C656E3A2025642E00C0465365745026
:2047CC006172616D657465723A20506172616D6574657220232564206E6F742076616C6978
:2047EC00642E00C05ECA000018CA0000400500003C0500004405000034CA000084050000FB
:20480C0030CA000014CA0000901400202CCA00002DE9F04FADF1840D209001F019F804F0D0
:20482C00E1F80024012804D105F0B6FE022808BF012459490868C0F38150012805D151F8D4
:20484C000C1C0120090E884004435448007805F011FCDFF84C81DFF84CA1C8F8000030B1BE
:20486C005246FF2107467F1E02F8011BFBD120990968002501F0FF02FE2A1BD0DDF880C03F
:20488C0052462B46012701F0FF06FF2E0BD0B04203D907FA06F6344201D0022079E001F05F
:2048AC00FF01354353545CF8041F5B1C01F0FF06FE2EEAD1092001F09FFE3B4920982422C9
:2048CC000823086001A8002106F01CFA4FF0010901AA3E488DF81C90494606F00FFAD8F85A
:2048EC0000303BB33A4E00274FF0040BBA4609FA07F0044218D1054204BF07F0FF0141F432
:20490C00C04104D027482099C05D51F82010274802F05CF8F8B24FF0FF3105F053FDD8F815
:20492C000030C6F800A001E0C6F800B07F1C361D9F42DCD30AA800213022082306F0DAF9F7
:20494C001B4D1D4A2878002410210AAB12901948009406F0CBF916A828220823214606F0F1
:20496C00C1F9686816AA16491C9014481D94234606F0B4F9134A52F80D0C494620F4F85012
:20498C0040F4005042F80D0C0F4BC2F8FF1F2046196021B0BDE8F08FB43F0050A424002003
:2049AC006C2000207423002094240020007FC767DCC90000B4230020EDA30000B4220020E1
:2049CC00C98A00000D30094008000940D0230020382200202DE9F84F9A4693460D46044661
:2049EC0006F0ACF9DFF85C810AAFB8F91220B8F91010009040F6F870891A0840082880F234
:204A0C009280B8F91000401C6FF31F30A8F81000B8F9109005F00CFC064604F1700005F006
:204A2C0057FCB56086F81EB0C6F804A0F460A6F81C9097E80C0051A003C800251040F5778E
:204A4C00D8F8002006F11007194087E80300002A5CD14046314604F017FE00285BD0A4F835
:204A6C0094904448F17F0778DFF8DCA041F08001F17784F8965067B151460F784FB1344A08
:204A8C003449324B0570012015700A781870521C0A70009806F04EF9D8F8040000284ED113
:204AAC005146087800282DD12B480078012846D006F044F9054629480078F8B9B06803F060
:204ACC00A5FC284B2C4A26491B681268086038B9284606F02FF92448042105F005FE2EE058
:204AEC00D0680968214C091AB1FBF3F1204606F01DF9204606F036F928461EE01C490120F2
:204B0C000870F9E7192005F0B9FE18E04046314604F0BAFD50B9B8F9100000F6FF706FF31B
:204B2C001F30A8F810006FF0010905E0A4F89490F07F40F08000F077009806F0FBF84846C7
:204B4C00BDE8F88F382400209F240020A32400209C240020A52400209E2400209D2400204B
:204B6C007C24002008CA0000E822002050230020A0240020A22400208C240020F1EFFF9FC2
:204B8C00200000002DE9F04F694CA068ADF1440D002800F09D80DFF890914FF00A0B4FF028
:204BAC00010A4FF000088FE006F0C8F821785F4BCA0002EB41129A18B2E8E01007ABA3E8AC
:204BCC00E010E0CAE0C364CA4F1C07F01F0183E8640004F10C05627821708A4208BF84F88D
:204BEC0002A006F0A7F8BDF82000002808BF2E1C09D00346A62138A2284605F06BFC284669
:204C0C0005F0D4FD2E18079FB8B205F031FB42A20CCA01F0C5F842A20CCA01F0C1F804F08B
:204C2C0001F8A91B00902EA23B0CA631304605F051FC284605F0BAFD2A18A0682946521B35
:204C4C0005F037FFBDF82200E0B106F043F8B9F8007037B909990A9F0346009124A20197F0
:204C6C0020E00A9900910B9F01970C9E02960D9B03930E9A04920F9F0597109E0696099BBC
:204C8C0002460FE00B9800900C9F01970D9E02960E9B03930F9A0492CDF81480CDF81880E4
:204CAC000A9B099A2846A62105F014FC284605F07DFD2A180D2002F8010B02F801BBA06856
:204CCC002946521B05F0F5FEA07800283FF46CAF11B0BDE8F08FC04623253036752000C088
:204CEC005B2025642E25303375205D2000C046C07B6576743A20666D743D25702C206172BA
:204D0C0067733D5B307825782C2030782578202E2E2E5D7D00C046C0000000000000F03EC7
:204D2C000000000000408F408A050000C0020020080200202DE9DF4F6648DFF890C1DFF8CC
:204D4C0078B1DFF878A1DFF87891DFF87881DFF878E1078857480E1C32A313D10168002FA5
:204D6C005DD058460068014259D050460068014204D1484600680088014250D040F27A479E
:204D8C002DA62DE0012E17D0022E48D1002A46D10168002F43D05846006801423FD05046EE
:204DAC000068014204D1484600680088014236D040F28B4724A613E0A2B90168002F2ED0EE
:204DCC005846006801422AD050460068014204D1484600680088014221D04FF4906726A6B6
:204DEC00002212E03A480168CFB158460068014215D050460068014204D148460068008866
:204E0C0001420CD040F2844723A660460468009701967746464602923A883068A0470090B3
:204E2C00BDE8DF8F70726F6A6563745F7A65726F5F6264732E6300C050616972696E67206A
:204E4C00737461727465640052652D65737461626C69736865642070616972696E67206653
:204E6C00726F6D2073746F72656420626F6E6420696E666F2E00C04650616972696E67207A
:204E8C00636F6D706C65746564207375636365737366756C6C792E0050616972696E6720EC
:204EAC006661696C65642E204572726F723A20253032780018CA0000400500003C05000068
:204ECC004405000034CA0000840500002CCA000014CA00005ECA00002DE9F0438046D8F81B
:204EEC000460D8F808700C46ADF1340D05F026FF3178012903D105F01DFF0020A3E04FF015
:204F0C00010986F8009005F015FF207870706078B07060687060A068B060E068F060206923
:204F2C003061207D3075607D7075A07DB075A069B061207F3077607F00257077A07F35628D
:204F4C003563102186F83C10B0772C4674627463B462B46386F82C4086F82D4086F83D406F
:204F6C00786801F049FB404601F0AEFB404602F077F978B935480068C06801463868884714
:204F8C00786801F0CFFA05F0D9FE347005F0D2FEA04657E001A821463022082305F0AAFEEF
:204FAC00CDF818803A7B09920095294AB96806F1680001AB05F09AFE01A8282208232146F2
:204FCC0005F090FE396907912249CDF8148006F1840001AA234605F081FE01A82422082327
:204FEC00214605F08FFEB0788DF81C9038B906F1B800214601AA05F081FE17483061707865
:20500C0038B906F1D400214601AA05F077FE1348F06001A821462422082305F097FE0694FC
:20502C00ADF8144006F1F0000D49CDF81C800A2201AB05F087FE0B4A06F15400042143462D
:20504C0004F08EFF40460DB0BDE8F083D0010010896200002D880000F7AA0000EFAA0000AD
:20506C00B570000099A800002DE9FC415E4C574D574EDFF860815A4F94F8E410481E0B28FE
:20508C0061D8DFE800F07B2C43062343062343067664042907D001220A2945F8212C14BFBB
:2050AC000220032004E02021012045F8211C024684F8E200002045F8390C0827C5F8FF7F2D
:2050CC00C5F8F37F45F8392CBDE8FC81052914BF09200620002584F8E400356070E094F88B
:2050EC00E1700120383D002FC5F81B0004BF0620002102D00021F160032084F8E4000320C2
:20510C0045F8010C31603068800859D294F8E400012503280DD000214046602205230091DD
:20512C0003F084FC94F8E400062814BF0A200720D1E702200090002160220523404603F080
:20514C0075FC0420C7E705F0C1FDBDE8FC812249002622480E60012505600E2001F0E2F93D
:20516C00022004F09FFC84F8E45084F8E360BDE8FC81002038600C2578601FE01948006858
:20518C0000680146202088472C3D41F61D560F2000214FF4C072072345F8010C4046C5F8B6
:2051AC0003600225009503F041FC404600214FF4C072072303F068FE0120386084F8E4508C
:2051CC0004F1780005F0CEFDBDE8FC8139400C4038600C4000A00C402C500C4004800C4047
:2051EC0034600C40A0010010581100202DE9F04F5E4CE7680346ADF11C0D002F68D052482A
:20520C00DFF84CA1DFF84C91DFF84C81DFF84CB1DFF84CC1DFF84CE106882FA23BBB4B49C1
:20522C000968002E4ED05046006801424AD048460068014204D1404600680088014241D072
:20524C00704640F224460568009628A3019338790290A078039000260496634605965F46F7
:20526C0006961E88386813463246A8472AE03E48016816B35046006801421ED04846006899
:20528C00014204D1404600680088014215D0704640F22946056800961FA601963879029053
:2052AC00039300260496674605965B46069618683E8813463246A847E768397907F1080000
:2052CC0005F016F9E06805F043F90020E060A07007B0BDE8F08FC04670726F6A6563745F9E
:2052EC007A65726F5F6264732E6300C053656E74206D6573736167652077697468206F707F
:20530C00636F6465203078253032782E20417474656D7074202564004761766520757020A1
:20532C006D6573736167652077697468206F70636F6465203078253032782E205374617455
:20534C0075733A20256400C05ECA000018CA0000400500003C0500004405000034CA0000DF
:20536C008405000030CA000014CA0000C00700202DE9FE430D4606462878994690460AAFD5
:20538C00022805D16868008842F60211814226D0284604F05BF84248424F01683888D8B123
:2053AC0041480068014217D040480068014204D13F480068008801420ED03E48046840F202
:2053CC00C1172FA6002500973B4B01963B4F02951A88386825A3A0470A20BDE8FE83388819
:2053EC0068BBB9F1020F28D198F8010098F8004004EB002434F003001DD1E8680768394603
:20540C00304604F025FF00280CBF0020807884420FD03046394604F01BFF48B939464FF67A
:20542C00FF7004F015FF002808BF112708D006808470002704E0802702E00D2700E00B2796
:20544C0016483C46076874B96FB1786858B1284603F0FCFFCDF800907D68024641F60F0196
:20546C0043463046A8472046BDE8FE83626174746572795F736572766963652E6300C046C4
:20548C0041747472696275746520776173206E6F7420666F756E642E00C046C0B01300205D
:2054AC0014CA00005ECA0000400500003C050000440500002CCA00008405000034CA00008E
:2054CC00F8B5414C201D0368B3F1FF3F08BF002303F088FA002876D13C4E20683468070F6A
:2054EC0004F0FF04802C28BF002403F07BFA4FF0FF3578B1401E07D0401E012802D9801EB9
:20550C0013D014E08FB112E0381C5CD0801E0ED114340BE03846401E55D0801E53D0001F65
:20552C0051D0401E03D1163400E00A3465B2162D49DB27482749002501270560264E0F60B2
:20554C00264C376020680028FCD1274A161D2449244F306820F0030001433868C0080CD200
:20556C00106810F0030F0AD041F003003060106800F003000328FAD101E041F001011B481F
:20558C003160006820B11A4800681846FCF7ACFA184819490560194F0A686FF35B4247EA43
:2055AC000200086016490868C0F30130012806D10A681448104040F400320A6008602068E4
:2055CC000028FCD1F8BDFEE718130050A0100050840460425C600C40082204430C0068425C
:2055EC0004000020B03F00500040034080012843000120438C21084048200340000039018F
:20560C0004000940FFFFFCFC70B5ADF1380D00F01FF9324908682822082340F00200086031
:20562C0001A8002105F05EFB2D4EB0782E4907902C48002301AA05F051FB00213022082374
:20564C0001A805F057FB002519213078284AADF81C5001AB09902548009505F047FB2822FC
:20566C00082301A8294605F03DFBF07822490790204801AA2B4605F031FB3022082301A879
:20568C00294605F037FB01241A2170781C4AADF81C4001AB09901948009505F027FB194806
:2056AC0019492A46134605F04DFB184805F086F91849194E0C70164835704FF6FF728283A0
:2056CC00C577164B1D70164C257016490D70174E3560154A15700EB070BDC0460020094089
:2056EC00FAC90000E8220020C5A60000EC230020C9A000001C230020416B00000824002057
:20570C006D84000050230020419B000059640000942300209C240020A12400209E240020E2
:20572C009D240020A2240020A3240020802400202DE9F04F0C464549CA7AADF12C0D8446D1
:20574C000592487B09900D7900958A7A488B4B8A0E7B91F805A091F802800492B1F846E05C
:20576C0008904A7A088B0392CD7807900A7AC88A02920F6A0690CA79888A01928A79E14632
:20578C00A9F54079B9F11D0F10D8DFE809F05B5553514F4D4B494643413F3C3A380F343179
:2057AC002E2B2923201E1C0F19181716BCF1280F49DA604603F0E8FB21E0099EB246D04638
:2057CC00CDF814801DE00898079007980690DDF818E005E03831086820608888A08032E0AE
:2057EC0070460AE0B1F8440009E0B1F8420004E0B1F8400001E091F83E00034612E02080EC
:20580C0021E0059804900498039001E03231E2E7039802900298009006E0019A87310DE091
:20582C0068310BE01846EAE7009D0BE02C31D2E7276008E0583100E048311022204601F031
:20584C006DFA00E025700BB0BDE8F08F180C00202DE9F041444C94F8E700ADF1280D0028F8
:20586C006FD1394F387B01250021242284F8E7507E6884F8E6000823C4F80C6101A805F027
:20588C0065FA002604F10C00069601ABADF814602E490796324605F055FA2D4904F13000AA
:2058AC0001AB324605F04EFA2A4904F1540001AB324605F047FAB868014628468847DFF8EA
:2058CC009C8025487B7B0078D8F80410C1F381571BB1032F03D184F8E150032F16D0022F8D
:2058EC0014D0012F26D103201D4C009031464FF040521C23204603F099F8009531464FF4B5
:20590C0000720923204603F091F813E0022004F0E1F8032F0CBF4FF47A7142F210711148E0
:20592C0000685434B1FBF0F1204605F0FFF9204605F018FAD8F80000C00802D2304604F048
:20594C00C9F80AB0BDE8F08170C90000837B0000DD71000011750000A4240020B03F005078
:20596C0000A00C4008CA0000581100202DE9F0430746880FADF1140D75D302F077FF404DAB
:20598C0000261C352E60394845F81C0C012000F088F9374805F012F8BC68B14640F60A01A4
:2059AC00344A6680537B118090465680107BC2F8049003F0F00300F0F000107343F0010313
:2059CC00537300E01C46636813B118888142F9D1C4F80480607B00F0F0006073264805F0C6
:2059EC00C7F880680088C91F81421DD0491C81421AD03B8CC3B197F82C107E8497F82D00FE
:205A0C00C7F8249001F0F00100F0F00087F82C1040F0010087F82D0007F12003C8F804309E
:205A2C00507B00F0F0005073B868694604F0E0FB684604F013FFB86801F00BFA28680028CC
:205A4C00FCD02E60012004F0AFFC012808D0607B00F0F00040F001006073084804F0AEFF6F
:205A6C00B86845F81C0C05B0BDE8F08301010E04451F00004C24002038240020C182000001
:205A8C00001004402DE9F04104F09EFD3F4D3E4EDFF8FC800446A00820D330464168E9B1C7
:205AAC00002242608B690A690F6922401A4342F0020205F108038A611A68BA4301F11007CE
:205ACC001A6097E80C002A680C301B1C9A432A6003F0DAFD4046022104F006FE7068A1085D
:205AEC0015D200F1100191E80C00002702EA04013B40002B08BF002909D081691440B06057
:205B0C000C4384614FF48041404604F0EDFD7068002837D1304605F02BF8071C32D01E48BC
:205B2C00F9680068884228D1B86802F06FFC19490860E8B905F1080138690A681043086018
:205B4C002B6807F1100494E80300081C1843286000222A61B86845F80C0C05F11000006884
:205B6C000028FAD0304604F047FD7760BDE8F081086802F071F9BDE8F08140464FF4805110
:205B8C0004F0B2FDBDE8F081382400200C100440E82200207C2400208C2400202DE9F04361
:205BAC000746ADF11C0D05F08DF803F033FF4FF000090646CDF80C9004F04EFF30F00100CF
:205BCC0002D00398B04202D16FF0040066E078684C4658B1B0F1FF3F05D004A903F002FF0E
:205BEC0030B1804659E04FF0FF3000E02046049005F064F8049D4FF001082D1802E00A46C0
:205C0C003BE004937068049905F054F800282DD0684602F0A7FBD8B99DF8040005A903F0DE
:205C2C0063FC88B9BB68BDF814009DF80610029A984748B1BDF814009DF80650B881029B23
:205C4C00BD73C8463B6111E0029903A804F05CF80498641CB0F1FF3FD4D00028D2D005F081
:205C6C002DF82B1A02D004989842CAD2039F04F0FDFB06F1080547B13A4652F80C1C002925
:205C8C00BDD1296842F80C1C2F6004F045FD24B1706805F00BF8641EFAD1404607B0BDE8DE
:205CAC00F08370472DE9F04707467D68D7F8089090460C4605F042F8AE6A8246002E64D12E
:205CCC0005F1F00004F004FB2C620024EC7750466C6205F02FF805F031F82F4E337882463C
:205CEC0023B9022003F0F6FE01203070504605F021F82A4A1068414640F4807010603846C9
:205D0C0003F052FBA862C0B93846414602F0FAFDA878D0B9A96805F1B80004F0CBFFE8B9FF
:205D2C00AC621020E8774946284601F07BFE05F005F88246307840B323E0D9F80010886B27
:205D4C0040F020008863A87810B12046BDE8F087A96805F1B80004F0ADFF10B1686ABDE802
:205D6C00F0873846414602F0CDFD1020AC624946E877284601F056FE04F0E0FF82463078BD
:205D8C0018B1022003F08EFE3470504604F0D2FF4FF0FF30BDE8F087A82400203010004098
:205DAC002DE9FC4191EA03084CBF4FF000484FF000084FEAC32545EA52554FEAC2264FEAD4
:205DCC0043077F0D11BF45F0004500210020BDE8FC815FF4E06E1EF1FF0E774555D04FEA5D
:205DEC00C12343EA50534FEAC0224FEA4104640D11BF43F0004300210020BDE8FC81744577
:205E0C0043D0E419A3FB0501A3FB06E7A2FB06631EEB030E57F1000751F10001A2FB056380
:205E2C001EEB060E57F1000751F10001FF1851F10001C01951F100014CBF4FF4806E4FF4B2
:205E4C00007E10EB0E0051F1000148BF641C01D4400049415FF44077FF37E41BDEBF002149
:205E6C000020BDE8FC8117F58067BC420DD24FEAD02040EA41504FEA41014FEA113141EAFF
:205E8C00045141EA0801BDE8FC810020FF21C900C91D090551EA0801BDE8FC81B0B5074636
:205EAC0034480168344800881425ADF1300D08B33248006801421DD031480068014204D113
:205ECC00304800680088014214D031484FF497630468009319A2019241F60F0302930397AC
:205EEC00002204920592294B06921A88264B18680DA3A0475FB92749C8780122401CC0B258
:205F0C00C870401EC1B207A801F0BAFB012507A80090FBB24FF6FF7141F60F020195022050
:205F2C0002F0F4F90CB0B0BD70726F6A6563745F7A65726F5F6264732E6300C02853574933
:205F4C00292047656E6572696320636C6F636B2068616E646C65723A20737663283078256A
:205F6C003034782920706172616D49442825642900C046C018CA00005ECA00004005000063
:205F8C003C0500004405000034CA00008405000030CA0000C007002035482DE9F0410E46EB
:205FAC0001683448008806AF98461546ADF1200DF8B13148006801421BD0304800680142D4
:205FCC0004D12F4800680088014212D02F4840F299430468009312A2019202960395002336
:205FEC00049305930693284B1A88264B186807A3A047CDF80080388832462B460190002097
:20600C0002F084F908B0BDE8F081C04670726F6A6563745F7A65726F5F6264732E6300C032
:20602C00284342292043686172616374657269737469632076616C7565206368616E6765F2
:20604C003A20737663283078253034782920706172616D4944282564292E2053656E6469BB
:20606C006E67206D736720746F206170702E00C018CA00005ECA0000400500003C050000F6
:20608C004405000034CA00008405000030CA00002DE9F04390460A68D8F800401678814634
:2060AC0000271D463846ADF1140D531C242E0B6053D112F8016F5B1C4C2E0B600ED1AA68F6
:2060CC00E41C24F00304241D54F8040C494602F06BF82968EF600127091A2960462E1AD105
:2060EC00E41C24F00304241D54F8040CE41C029024F00304241D54F8040C00274946039049
:20610C00AA68ADF8047001A800F056FE2968EF600127091A2960532E1FD1E41C24F003041B
:20612C00241D54F8040CE861C8F80040288B0090A968EA69D9F800004346FCF7BBF8D9F8F5
:20614C000040002714B10119C9F80010D8F800402968EF60091A01272960662E0AD12B8B33
:20616C0023B9E41D24F00704083403E0E41C24F00304241D1FB9E9690E700127EF60C8F8BD
:20618C00004005B0BDE8F0832DE9F043814635480E4601683148008807AF98461546ADF10E
:2061AC001C0DF8B13048006801421BD02F480068014204D12E4800680088014212D0284801
:2061CC0040F2A6430468009312A20192029603950023049305930693264B1A88264B186833
:2061EC0007A3A047CDF800803888494632462B460190012002F08AF807B0BDE8F083C0468A
:20620C0070726F6A6563745F7A65726F5F6264732E6300C028434229204368617220636F0D
:20622C006E666967206368616E67653A20737663283078253034782920706172616D4944CA
:20624C00282564292E2053656E64696E67206D736720746F206170702E00C0465ECA00001B
:20626C0030CA000018CA0000400500003C050000440500008405000034CA00002DE9F8438F
:20628C000746D7F80880D8F800007D68066C16F4F06F466426D1F00910D2700952D395F817
:2062AC003C00AC6B401E844288BF041C3846214603F042F8A86B001BA86308E0A96B38462F
:2062CC0003F03AF8014695F82D00A96318B9A86B002837D101E00020A86305F1840004F0F2
:2062EC00E1FC2FE0F00A0ED3D8F80000002144684160A96B04F00F04202988BF2021384623
:20630C0003F01AF81AE04FF000094C4602E0A86B401EA863A86B88B13846012103F00CF857
:20632C00D8F80000446814F00F04C0F80490EED0296B686B491E2963401E6863EC77384650
:20634C0001F0AAFBB0090DD3AE6A5EB13846314603F02AF8A862A86A314618B93846091DC9
:20636C0002F0D0FABDE8F8832DE9F04130482F4908603048FEF74CFA02F0A6FF00200146E5
:20638C0003F0C0FB00252C492F4C0860032004F1180141F80C5F401E8D60FAD1241F062072
:2063AC0004F14C010A46401E22F80C5BFBD10820224F0880224A8F602249121D22F0030366
:2063CC00CF1A6762E3612362E66904F12008944618460A4601E026F8025BB142FBD8B91057
:2063EC00E82700EB810121F8045C4FF6FC761F8006EA0C0300F1E807D21A676106EA0201C0
:20640C00EC39A0F8E810284600F0FAFFA061D8F80000606101F0B0FB02F016FD02F086FEBB
:20642C0004F03CFC2846BDE8F081C04644140020798C000094C7000010020020DDA1000012
:20644C00A9240020483F00206C120020042998B54CD1274804F08CFB264C48B9264800F1AB
:20646C001F010978490838BF206803D3406800E0C06820604168214A097811604168126870
:20648C000978914206D0876927B124A20CCA6FF0FF01B847022003F01DFB112000F0ACF812
:2064AC0001222168164B087C1A7018B115480078012803D00E2000F09FF8216849681248D2
:2064CC008F680FB9CF681FB10021C1610F4F07600F4A40F2FF711160002787610D4941616F
:2064EC000D4804F06BFA192004F0D4FB98BDC046382400208C24002094230020D02108402F
:20650C009E240020A12400200010044051000706000004600200004079590000000000007E
:20652C00000000022DE9F843044604F007FC81462D48021992F8ED10491ECFB2002F82F84C
:20654C00ED704BD12B4D05EB84052E78698836F07F0788461AD1F10911D24FF08054D4F80D
:20656C00B801806901464046884704F5DC742068406B0146404688470228F8D121E000EBDA
:20658C008800D0F80011002088471AE04FF08054D4F8B801006A014640468847D4F8B80182
:2065AC00806A014640468847D4F8B801006B01464046884701210D4A0D4811600168890884
:2065CC00FCD306F03F003F2801D0FFF7ABFF687800F03F003F2801D0FFF7A4FF484604F071
:2065EC00A9FBBDE8F883C04658110020282008602820084014C600002DE9F041064604F09B
:20660C009DFB2D4D8046A91991F8ED00421C002881F8ED204AD1294C04EB8604277807F0B3
:20662C003F003F2801D0FFF7E7FF607800F03F003F2801D0FFF7E0FF668837F07F001AD168
:20664C00F80911D24FF08054D4F8B801406901463046884704F5DC742068406B0146304644
:20666C0088470128F8D121E005EB8605D5F80011012088471AE04FF08054D4F8B801C06948
:20668C00014630468847D4F8B801406A014630468847D4F8B801C06A01463046884701214A
:2066AC00074A0848116001688908FCD3404604F041FBBDE8F081C0465811002014C60000BE
:2066CC0028200860282008402B4AF0B538CAADF11C0D02A938C10CCA4FF0805681E80C0087
:2066EC0084684568D6F8D0112068C9688847216822488A6B10408863206840F2F2714164D9
:20670C0095F83C0095F83D202168C0100DEB8000806810434863684604F0B8FA1A4FDFF86F
:20672C0064E0D6F8D0112B7FDFF854C06A7FA87F496857F823705EF82260AA695CF8203093
:20674C000D46206801993E433343A8470F490A1F106840F010001060086840F00100086020
